{
  "contractName": "DutchAuction",
  "abi": [
    {
      "inputs": [
        {
          "internalType": "uint256",
          "name": "_initialPrice",
          "type": "uint256"
        },
        {
          "internalType": "uint256",
          "name": "_totalSupply",
          "type": "uint256"
        }
      ],
      "stateMutability": "nonpayable",
      "type": "constructor"
    },
    {
      "inputs": [
        {
          "internalType": "address",
          "name": "owner",
          "type": "address"
        }
      ],
      "name": "OwnableInvalidOwner",
      "type": "error"
    },
    {
      "inputs": [
        {
          "internalType": "address",
          "name": "account",
          "type": "address"
        }
      ],
      "name": "OwnableUnauthorizedAccount",
      "type": "error"
    },
    {
      "inputs": [],
      "name": "ReentrancyGuardReentrantCall",
      "type": "error"
    },
    {
      "anonymous": false,
      "inputs": [
        {
          "indexed": false,
          "internalType": "uint256",
          "name": "endTime",
          "type": "uint256"
        }
      ],
      "name": "AuctionEnded",
      "type": "event"
    },
    {
      "anonymous": false,
      "inputs": [
        {
          "indexed": false,
          "internalType": "uint256",
          "name": "startTime",
          "type": "uint256"
        },
        {
          "indexed": false,
          "internalType": "uint256",
          "name": "endTime",
          "type": "uint256"
        }
      ],
      "name": "AuctionStarted",
      "type": "event"
    },
    {
      "anonymous": false,
      "inputs": [
        {
          "indexed": false,
          "internalType": "address",
          "name": "bidder",
          "type": "address"
        },
        {
          "indexed": false,
          "internalType": "uint256",
          "name": "amount",
          "type": "uint256"
        }
      ],
      "name": "BidSuccess",
      "type": "event"
    },
    {
      "anonymous": false,
      "inputs": [
        {
          "indexed": true,
          "internalType": "address",
          "name": "previousOwner",
          "type": "address"
        },
        {
          "indexed": true,
          "internalType": "address",
          "name": "newOwner",
          "type": "address"
        }
      ],
      "name": "OwnershipTransferred",
      "type": "event"
    },
    {
      "anonymous": false,
      "inputs": [
        {
          "indexed": false,
          "internalType": "address",
          "name": "bidder",
          "type": "address"
        },
        {
          "indexed": false,
          "internalType": "uint256",
          "name": "amount",
          "type": "uint256"
        }
      ],
      "name": "RefundAmount",
      "type": "event"
    },
    {
      "anonymous": false,
      "inputs": [
        {
          "indexed": true,
          "internalType": "address",
          "name": "bidder",
          "type": "address"
        },
        {
          "indexed": false,
          "internalType": "uint256",
          "name": "tokensAmount",
          "type": "uint256"
        },
        {
          "indexed": false,
          "internalType": "uint256",
          "name": "tokenPrice",
          "type": "uint256"
        }
      ],
      "name": "TokensReserved",
      "type": "event"
    },
    {
      "anonymous": false,
      "inputs": [
        {
          "indexed": true,
          "internalType": "address",
          "name": "bidder",
          "type": "address"
        },
        {
          "indexed": false,
          "internalType": "uint256",
          "name": "amount",
          "type": "uint256"
        }
      ],
      "name": "TokensWithdrawn",
      "type": "event"
    },
    {
      "inputs": [],
      "name": "auctionActive",
      "outputs": [
        {
          "internalType": "bool",
          "name": "",
          "type": "bool"
        }
      ],
      "stateMutability": "view",
      "type": "function",
      "constant": true
    },
    {
      "inputs": [
        {
          "internalType": "uint256",
          "name": "",
          "type": "uint256"
        }
      ],
      "name": "bidsQueue",
      "outputs": [
        {
          "internalType": "address",
          "name": "bidder",
          "type": "address"
        },
        {
          "internalType": "uint256",
          "name": "amount",
          "type": "uint256"
        }
      ],
      "stateMutability": "view",
      "type": "function",
      "constant": true
    },
    {
      "inputs": [],
      "name": "endTime",
      "outputs": [
        {
          "internalType": "uint256",
          "name": "",
          "type": "uint256"
        }
      ],
      "stateMutability": "view",
      "type": "function",
      "constant": true
    },
    {
      "inputs": [],
      "name": "estRemainingSupply",
      "outputs": [
        {
          "internalType": "uint256",
          "name": "",
          "type": "uint256"
        }
      ],
      "stateMutability": "view",
      "type": "function",
      "constant": true
    },
    {
      "inputs": [],
      "name": "finalPrice",
      "outputs": [
        {
          "internalType": "uint256",
          "name": "",
          "type": "uint256"
        }
      ],
      "stateMutability": "view",
      "type": "function",
      "constant": true
    },
    {
      "inputs": [],
      "name": "initialPrice",
      "outputs": [
        {
          "internalType": "uint256",
          "name": "",
          "type": "uint256"
        }
      ],
      "stateMutability": "view",
      "type": "function",
      "constant": true
    },
    {
      "inputs": [],
      "name": "minPrice",
      "outputs": [
        {
          "internalType": "uint256",
          "name": "",
          "type": "uint256"
        }
      ],
      "stateMutability": "view",
      "type": "function",
      "constant": true
    },
    {
      "inputs": [],
      "name": "owner",
      "outputs": [
        {
          "internalType": "address",
          "name": "",
          "type": "address"
        }
      ],
      "stateMutability": "view",
      "type": "function",
      "constant": true
    },
    {
      "inputs": [],
      "name": "renounceOwnership",
      "outputs": [],
      "stateMutability": "nonpayable",
      "type": "function"
    },
    {
      "inputs": [
        {
          "internalType": "address",
          "name": "",
          "type": "address"
        }
      ],
      "name": "reservedTokensByBidder",
      "outputs": [
        {
          "internalType": "uint256",
          "name": "",
          "type": "uint256"
        }
      ],
      "stateMutability": "view",
      "type": "function",
      "constant": true
    },
    {
      "inputs": [],
      "name": "startTime",
      "outputs": [
        {
          "internalType": "uint256",
          "name": "",
          "type": "uint256"
        }
      ],
      "stateMutability": "view",
      "type": "function",
      "constant": true
    },
    {
      "inputs": [],
      "name": "token",
      "outputs": [
        {
          "internalType": "contract ChainvisionToken",
          "name": "",
          "type": "address"
        }
      ],
      "stateMutability": "view",
      "type": "function",
      "constant": true
    },
    {
      "inputs": [],
      "name": "totalSupply",
      "outputs": [
        {
          "internalType": "uint256",
          "name": "",
          "type": "uint256"
        }
      ],
      "stateMutability": "view",
      "type": "function",
      "constant": true
    },
    {
      "inputs": [
        {
          "internalType": "address",
          "name": "newOwner",
          "type": "address"
        }
      ],
      "name": "transferOwnership",
      "outputs": [],
      "stateMutability": "nonpayable",
      "type": "function"
    },
    {
      "inputs": [
        {
          "internalType": "uint256",
          "name": "duration",
          "type": "uint256"
        }
      ],
      "name": "startAuction",
      "outputs": [],
      "stateMutability": "nonpayable",
      "type": "function"
    },
    {
      "inputs": [],
      "name": "finalizeAuction",
      "outputs": [],
      "stateMutability": "nonpayable",
      "type": "function"
    },
    {
      "inputs": [],
      "name": "bid",
      "outputs": [],
      "stateMutability": "payable",
      "type": "function",
      "payable": true
    },
    {
      "inputs": [],
      "name": "getCurrentPrice",
      "outputs": [
        {
          "internalType": "uint256",
          "name": "",
          "type": "uint256"
        }
      ],
      "stateMutability": "view",
      "type": "function",
      "constant": true
    },
    {
      "inputs": [],
      "name": "withdrawTokens",
      "outputs": [],
      "stateMutability": "nonpayable",
      "type": "function"
    },
    {
      "inputs": [],
      "name": "withdrawFunds",
      "outputs": [],
      "stateMutability": "nonpayable",
      "type": "function"
    },
    {
      "inputs": [],
      "name": "isAuctionActive",
      "outputs": [
        {
          "internalType": "bool",
          "name": "",
          "type": "bool"
        }
      ],
      "stateMutability": "view",
      "type": "function",
      "constant": true
    },
    {
      "inputs": [],
      "name": "getRemainingTime",
      "outputs": [
        {
          "internalType": "uint256",
          "name": "",
          "type": "uint256"
        }
      ],
      "stateMutability": "view",
      "type": "function",
      "constant": true
    },
    {
      "inputs": [],
      "name": "getEndTime",
      "outputs": [
        {
          "internalType": "uint256",
          "name": "",
          "type": "uint256"
        }
      ],
      "stateMutability": "view",
      "type": "function",
      "constant": true
    },
    {
      "inputs": [],
      "name": "getStartTime",
      "outputs": [
        {
          "internalType": "uint256",
          "name": "",
          "type": "uint256"
        }
      ],
      "stateMutability": "view",
      "type": "function",
      "constant": true
    },
    {
      "inputs": [],
      "name": "getestRemainingSupply",
      "outputs": [
        {
          "internalType": "uint256",
          "name": "",
          "type": "uint256"
        }
      ],
      "stateMutability": "view",
      "type": "function",
      "constant": true
    },
    {
      "inputs": [],
      "name": "getReservedToken",
      "outputs": [
        {
          "internalType": "uint256",
          "name": "",
          "type": "uint256"
        }
      ],
      "stateMutability": "view",
      "type": "function",
      "constant": true
    },
    {
      "inputs": [],
      "name": "getCurrentTimesttamp",
      "outputs": [
        {
          "internalType": "uint256",
          "name": "",
          "type": "uint256"
        }
      ],
      "stateMutability": "view",
      "type": "function",
      "constant": true
    },
    {
      "inputs": [],
      "name": "triggerDummyBlock",
      "outputs": [],
      "stateMutability": "nonpayable",
      "type": "function"
    }
  ],
  "bytecode": "0x608060405267016345785d8a0000600555600a805461ff00191690553480156200002857600080fd5b5060405162001f8c38038062001f8c8339810160408190526200004b9162000210565b33806200007357604051631e4fbdf760e01b8152600060048201526024015b60405180910390fd5b6200007e81620001b2565b506001805581620000e35760405162461bcd60e51b815260206004820152602860248201527f5374617274696e67207072696365206d7573742062652067726561746572207460448201526768616e207a65726f60c01b60648201526084016200006a565b60008111620001445760405162461bcd60e51b815260206004820152602660248201527f546f74616c20737570706c79206d7573742062652067726561746572207468616044820152656e207a65726f60d01b60648201526084016200006a565b600382905560088190556009819055600a805460ff191690556040516200016b9062000202565b604051809103906000f08015801562000188573d6000803e3d6000fd5b50600280546001600160a01b0319166001600160a01b039290921691909117905550620002359050565b600080546001600160a01b038381166001600160a01b0319831681178455604051919092169283917f8be0079c531659141344cd1fd0a4f28419497f9722a3daafe3b4186f6b6457e09190a35050565b610bcc80620013c083390190565b600080604083850312156200022457600080fd5b505080516020909101519092909150565b61117b80620002456000396000f3fe6080604052600436106101b75760003560e01c8063a6b513ee116100ec578063e45be8eb1161008a578063f20f537511610064578063f20f537514610449578063f2fde38b1461045c578063f77282ab1461047c578063fc0c546a1461049157600080fd5b8063e45be8eb14610409578063eb91d37e1461041f578063efb98bcf1461043457600080fd5b8063c70fcf67116100c6578063c70fcf6714610399578063c828371e146103c6578063d1b4b9a3146103db578063d76b07a6146103f357600080fd5b8063a6b513ee1461032f578063b07c306814610345578063c212d7e11461035a57600080fd5b80633197cbb61161015957806378e979251161013357806378e97925146102a85780638d8f2adb146102be5780638da5cb5b146102d3578063922280061461030557600080fd5b80633197cbb614610268578063439f5ac21461027e578063715018a61461029357600080fd5b80631998aeef116101955780631998aeef146102135780631d0806ae1461021b57806324600fc3146102315780632de9e87d1461024657600080fd5b8063065de74c146101bc57806318160ddd146101de578063195409c014610207575b600080fd5b3480156101c857600080fd5b506101dc6101d7366004611023565b6104b1565b005b3480156101ea57600080fd5b506101f460085481565b6040519081526020015b60405180910390f35b3480156101dc57600080fd5b6101dc61057a565b34801561022757600080fd5b506101f460035481565b34801561023d57600080fd5b506101dc61071b565b34801561025257600080fd5b50336000908152600c60205260409020546101f4565b34801561027457600080fd5b506101f460075481565b34801561028a57600080fd5b506007546101f4565b34801561029f57600080fd5b506101dc6107cd565b3480156102b457600080fd5b506101f460065481565b3480156102ca57600080fd5b506101dc6107df565b3480156102df57600080fd5b506000546001600160a01b03165b6040516001600160a01b0390911681526020016101fe565b34801561031157600080fd5b50600a5461031f9060ff1681565b60405190151581526020016101fe565b34801561033b57600080fd5b506101f460045481565b34801561035157600080fd5b506009546101f4565b34801561036657600080fd5b5061037a610375366004611023565b61094d565b604080516001600160a01b0390931683526020830191909152016101fe565b3480156103a557600080fd5b506101f46103b436600461103c565b600c6020526000908152604090205481565b3480156103d257600080fd5b506006546101f4565b3480156103e757600080fd5b50600a5460ff1661031f565b3480156103ff57600080fd5b506101f460095481565b34801561041557600080fd5b506101f460055481565b34801561042b57600080fd5b506101f4610985565b34801561044057600080fd5b506101f4610a10565b34801561045557600080fd5b50426101f4565b34801561046857600080fd5b506101dc61047736600461103c565b610a4d565b34801561048857600080fd5b506101dc610a8b565b34801561049d57600080fd5b506002546102ed906001600160a01b031681565b6104b9610e66565b600a5460ff16156105115760405162461bcd60e51b815260206004820152601960248201527f41756374696f6e20697320616c7265616479206163746976650000000000000060448201526064015b60405180910390fd5b426006819055610522908290611082565b6007819055600a805460ff191660011790556006546040517ff8910119ddbef5440c54532457dfe8250a10ed39e583292818f44724b9e1344c9261056d928252602082015260400190565b60405180910390a150565b565b600a5460ff1661059c5760405162461bcd60e51b81526004016105089061109b565b6105a4610e93565b6105e45760405162461bcd60e51b8152602060048201526011602482015270105d58dd1a5bdb881a185cc8195b991959607a1b6044820152606401610508565b6105ec610985565b600481905560006105fd82346110ca565b905060095481111561060e57506009545b806009600082825461062091906110ec565b909155505060408051808201825233808252346020808401918252600b805460018101825560009190915293517f0175b7a638427703f0dbe7bb9bbf987a2551717b34e79f33b5b1008d1fa01db9600290950294850180546001600160a01b0319166001600160a01b0390921691909117905590517f0175b7a638427703f0dbe7bb9bbf987a2551717b34e79f33b5b1008d1fa01dba9093019290925582519081529081018490527f5762e6a7d331cd17a1761e94de3ea3b85e90ee6cdd9d1204e361cc650689d463910160405180910390a16106fb610eaa565b1561071757600a805461ff001916610100179055610717610a8b565b5050565b610723610e66565b61072b610ebb565b604051600090339047908381818185875af1925050503d806000811461076d576040519150601f19603f3d011682016040523d82523d6000602084013e610772565b606091505b50509050806107c35760405162461bcd60e51b815260206004820181905260248201527f46756e6473206e6f742077697468647261776e207375636365737366756c6c796044820152606401610508565b5061057860018055565b6107d5610e66565b6105786000610ee5565b600a5460ff16156108325760405162461bcd60e51b815260206004820152601760248201527f41756374696f6e206973207374696c6c206163746976650000000000000000006044820152606401610508565b61083a610ebb565b336000908152600c6020526040902054806108975760405162461bcd60e51b815260206004820152601e60248201527f4e6f20726573657276656420746f6b656e7320746f20776974686472617700006044820152606401610508565b336000818152600c6020526040808220919091556002549051633c37699760e21b81526004810192909252602482018390526001600160a01b03169063f0dda65c90604401600060405180830381600087803b1580156108f657600080fd5b505af115801561090a573d6000803e3d6000fd5b50506040518381523392507f6352c5382c4a4578e712449ca65e83cdb392d045dfcf1cad9615189db2da244b915060200160405180910390a25061057860018055565b600b818154811061095d57600080fd5b6000918252602090912060029091020180546001909101546001600160a01b03909116915082565b600061098f610e93565b61099a575060045490565b6000600654426109aa91906110ec565b905060006006546007546109be91906110ec565b6005546003546109ce91906110ec565b6109d891906110ca565b905060006109e683836110ff565b6003546109f391906110ec565b90506005548110610a045780610a08565b6005545b935050505090565b6000610a1e600a5460ff1690565b610a3a5760405162461bcd60e51b81526004016105089061109b565b42600754610a4891906110ec565b905090565b610a55610e66565b6001600160a01b038116610a7f57604051631e4fbdf760e01b815260006004820152602401610508565b610a8881610ee5565b50565b600a5460ff16610aad5760405162461bcd60e51b81526004016105089061109b565b6000546001600160a01b0316331480610acd5750600a54610100900460ff165b610b2a5760405162461bcd60e51b815260206004820152602860248201527f596f7520617265206e6f7420617574686f72697a656420746f206d616b6520746044820152671a1a5cc818d85b1b60c21b6064820152608401610508565b610b32610ebb565b610b3a610e93565b1580610b495750610b49610eaa565b610bb45760405162461bcd60e51b815260206004820152603660248201527f41756374696f6e206475726174696f6e20686173206e6f74207061737365642060448201527537b9103a37b5b2b7399039ba34b636103932b6b0b4b760511b6064820152608401610508565b600a805461ffff1916905560085460005b600082118015610bd65750600b5481105b15610d55576000600b8281548110610bf057610bf0611116565b600091825260208083206040805180820190915260029093020180546001600160a01b031683526001015490820181905260045491935091610c3282846110ca565b905085811115610c3f5750845b6000610c4b83836110ff565b90506000610c5982866110ec565b90508215610ce55785516001600160a01b03166000908152600c602052604081208054859290610c8a908490611082565b90915550610c9a905083896110ec565b86516040805186815260208101889052929a506001600160a01b03909116917fea2d30edb838f5a3221f85861ab9727d5449c474cc03ffa6a78a0a9e7f084f65910160405180910390a25b8015610d3d578551610cf79082610f35565b8551604080516001600160a01b039092168252602082018390527f3f35578ce3b237cd848f01a5babbf5a3ee58c7a2b5dc9f492d709224263de7e4910160405180910390a15b86610d478161112c565b975050505050505050610bc5565b600b54811015610e10576000600b8281548110610d7457610d74611116565b60009182526020918290206040805180820190915260029092020180546001600160a01b0316808352600190910154928201839052909250610db591610f35565b8051602080830151604080516001600160a01b039094168452918301527f3f35578ce3b237cd848f01a5babbf5a3ee58c7a2b5dc9f492d709224263de7e4910160405180910390a181610e078161112c565b92505050610d55565b600354600455600854600955610e28600b6000610fdd565b6040514281527f45806e512b1f4f10e33e8b3cb64d1d11d998d8c554a95e0841fc1c701278bd5d9060200160405180910390a1505061057860018055565b6000546001600160a01b031633146105785760405163118cdaa760e01b8152336004820152602401610508565b60006007544210610ea45750600090565b50600190565b60095460009015610ea45750600090565b600260015403610ede57604051633ee5aeb560e01b815260040160405180910390fd5b6002600155565b600080546001600160a01b038381166001600160a01b0319831681178455604051919092169283917f8be0079c531659141344cd1fd0a4f28419497f9722a3daafe3b4186f6b6457e09190a35050565b6000826001600160a01b03168260405160006040518083038185875af1925050503d8060008114610f82576040519150601f19603f3d011682016040523d82523d6000602084013e610f87565b606091505b5050905080610fd85760405162461bcd60e51b815260206004820152601f60248201527f46756e6473206e6f7420726566756e646564207375636365737366756c6c79006044820152606401610508565b505050565b5080546000825560020290600052602060002090810190610a8891905b8082111561101f5780546001600160a01b031916815560006001820155600201610ffa565b5090565b60006020828403121561103557600080fd5b5035919050565b60006020828403121561104e57600080fd5b81356001600160a01b038116811461106557600080fd5b9392505050565b634e487b7160e01b600052601160045260246000fd5b808201808211156110955761109561106c565b92915050565b60208082526015908201527441756374696f6e206973206e6f742061637469766560581b604082015260600190565b6000826110e757634e487b7160e01b600052601260045260246000fd5b500490565b818103818111156110955761109561106c565b80820281158282048414176110955761109561106c565b634e487b7160e01b600052603260045260246000fd5b60006001820161113e5761113e61106c565b506001019056fea2646970667358221220f2fefe38a18768f82d05377b35fc5aca2746cad65d09a5ebbfb8c0cf1736935764736f6c6343000816003360806040523480156200001157600080fd5b50336040518060400160405280601081526020016f21b430b4b73b34b9b4b7b72a37b5b2b760811b8152506040518060400160405280600381526020016221ab2760e91b8152508160039081620000699190620001b5565b506004620000788282620001b5565b5050506001600160a01b038116620000aa57604051631e4fbdf760e01b81526000600482015260240160405180910390fd5b620000b581620000bc565b5062000281565b600580546001600160a01b038381166001600160a01b0319831681179093556040519116919082907f8be0079c531659141344cd1fd0a4f28419497f9722a3daafe3b4186f6b6457e090600090a35050565b634e487b7160e01b600052604160045260246000fd5b600181811c908216806200013957607f821691505b6020821081036200015a57634e487b7160e01b600052602260045260246000fd5b50919050565b601f821115620001b0576000816000526020600020601f850160051c810160208610156200018b5750805b601f850160051c820191505b81811015620001ac5782815560010162000197565b5050505b505050565b81516001600160401b03811115620001d157620001d16200010e565b620001e981620001e2845462000124565b8462000160565b602080601f831160018114620002215760008415620002085750858301515b600019600386901b1c1916600185901b178555620001ac565b600085815260208120601f198616915b82811015620002525788860151825594840194600190910190840162000231565b5085821015620002715787850151600019600388901b60f8161c191681555b5050505050600190811b01905550565b61093b80620002916000396000f3fe608060405234801561001057600080fd5b50600436106100ea5760003560e01c8063715018a61161008c578063a9059cbb11610066578063a9059cbb146101cd578063dd62ed3e146101e0578063f0dda65c14610219578063f2fde38b1461022c57600080fd5b8063715018a6146101a25780638da5cb5b146101aa57806395d89b41146101c557600080fd5b806318160ddd116100c857806318160ddd1461014557806323b872dd14610157578063313ce5671461016a57806370a082311461017957600080fd5b806306fdde03146100ef578063095ea7b31461010d5780630d1118ce14610130575b600080fd5b6100f761023f565b6040516101049190610784565b60405180910390f35b61012061011b3660046107ef565b6102d1565b6040519015158152602001610104565b61014361013e3660046107ef565b6102eb565b005b6002545b604051908152602001610104565b610120610165366004610819565b610301565b60405160128152602001610104565b610149610187366004610855565b6001600160a01b031660009081526020819052604090205490565b610143610325565b6005546040516001600160a01b039091168152602001610104565b6100f7610339565b6101206101db3660046107ef565b610348565b6101496101ee366004610877565b6001600160a01b03918216600090815260016020908152604080832093909416825291909152205490565b6101436102273660046107ef565b610356565b61014361023a366004610855565b610368565b60606003805461024e906108aa565b80601f016020809104026020016040519081016040528092919081815260200182805461027a906108aa565b80156102c75780601f1061029c576101008083540402835291602001916102c7565b820191906000526020600020905b8154815290600101906020018083116102aa57829003601f168201915b5050505050905090565b6000336102df8185856103ab565b60019150505b92915050565b6102f36103bd565b6102fd82826103ea565b5050565b60003361030f858285610420565b61031a85858561049e565b506001949350505050565b61032d6103bd565b61033760006104fd565b565b60606004805461024e906108aa565b6000336102df81858561049e565b61035e6103bd565b6102fd828261054f565b6103706103bd565b6001600160a01b03811661039f57604051631e4fbdf760e01b8152600060048201526024015b60405180910390fd5b6103a8816104fd565b50565b6103b88383836001610585565b505050565b6005546001600160a01b031633146103375760405163118cdaa760e01b8152336004820152602401610396565b6001600160a01b03821661041457604051634b637e8f60e11b815260006004820152602401610396565b6102fd8260008361065a565b6001600160a01b038381166000908152600160209081526040808320938616835292905220546000198114610498578181101561048957604051637dc7a0d960e11b81526001600160a01b03841660048201526024810182905260448101839052606401610396565b61049884848484036000610585565b50505050565b6001600160a01b0383166104c857604051634b637e8f60e11b815260006004820152602401610396565b6001600160a01b0382166104f25760405163ec442f0560e01b815260006004820152602401610396565b6103b883838361065a565b600580546001600160a01b038381166001600160a01b0319831681179093556040519116919082907f8be0079c531659141344cd1fd0a4f28419497f9722a3daafe3b4186f6b6457e090600090a35050565b6001600160a01b0382166105795760405163ec442f0560e01b815260006004820152602401610396565b6102fd6000838361065a565b6001600160a01b0384166105af5760405163e602df0560e01b815260006004820152602401610396565b6001600160a01b0383166105d957604051634a1406b160e11b815260006004820152602401610396565b6001600160a01b038085166000908152600160209081526040808320938716835292905220829055801561049857826001600160a01b0316846001600160a01b03167f8c5be1e5ebec7d5bd14f71427d1e84f3dd0314c0f7b2291e5b200ac8c7c3b9258460405161064c91815260200190565b60405180910390a350505050565b6001600160a01b03831661068557806002600082825461067a91906108e4565b909155506106f79050565b6001600160a01b038316600090815260208190526040902054818110156106d85760405163391434e360e21b81526001600160a01b03851660048201526024810182905260448101839052606401610396565b6001600160a01b03841660009081526020819052604090209082900390555b6001600160a01b03821661071357600280548290039055610732565b6001600160a01b03821660009081526020819052604090208054820190555b816001600160a01b0316836001600160a01b03167fddf252ad1be2c89b69c2b068fc378daa952ba7f163c4a11628f55a4df523b3ef8360405161077791815260200190565b60405180910390a3505050565b60006020808352835180602085015260005b818110156107b257858101830151858201604001528201610796565b506000604082860101526040601f19601f8301168501019250505092915050565b80356001600160a01b03811681146107ea57600080fd5b919050565b6000806040838503121561080257600080fd5b61080b836107d3565b946020939093013593505050565b60008060006060848603121561082e57600080fd5b610837846107d3565b9250610845602085016107d3565b9150604084013590509250925092565b60006020828403121561086757600080fd5b610870826107d3565b9392505050565b6000806040838503121561088a57600080fd5b610893836107d3565b91506108a1602084016107d3565b90509250929050565b600181811c908216806108be57607f821691505b6020821081036108de57634e487b7160e01b600052602260045260246000fd5b50919050565b808201808211156102e557634e487b7160e01b600052601160045260246000fdfea2646970667358221220e7c75fa9cbeb213479d1302363ca3ed19e613336d5752b275a6dcb809e23962864736f6c63430008160033",
  "immutableReferences": {},
  "source": "// SPDX-License-Identifier: MIT\r\npragma solidity ^0.8.22;\r\n\r\nimport \"@openzeppelin/contracts/access/Ownable.sol\";\r\nimport \"@openzeppelin/contracts/utils/ReentrancyGuard.sol\";\r\nimport \"./ChainvisionToken.sol\";\r\n\r\ncontract DutchAuction is Ownable, ReentrancyGuard {\r\n    ChainvisionToken public token;\r\n    uint public initialPrice;\r\n    uint public finalPrice;\r\n    uint public minPrice = 100000000000000000; //0.1eth\r\n    uint public startTime;\r\n    uint public endTime;\r\n    uint public totalSupply;\r\n    uint public estRemainingSupply;\r\n    bool public auctionActive;\r\n    bool internalCall = false;\r\n\r\n    struct Bid {\r\n        address bidder;\r\n        uint256 amount;\r\n    }\r\n\r\n    Bid[] public bidsQueue;\r\n    // Mapping to track how many tokens each bidder reserved\r\n    mapping(address => uint) public reservedTokensByBidder;\r\n\r\n    event AuctionStarted(uint startTime, uint endTime);\r\n    event AuctionEnded(uint endTime);\r\n    event TokensReserved(\r\n        address indexed bidder,\r\n        uint tokensAmount,\r\n        uint tokenPrice\r\n    );\r\n    event TokensWithdrawn(address indexed bidder, uint amount);\r\n    event RefundAmount(address bidder, uint amount);\r\n    event BidSuccess(address bidder, uint amount);\r\n\r\n    constructor(uint _initialPrice, uint _totalSupply) Ownable(msg.sender) {\r\n        require(_initialPrice > 0, \"Starting price must be greater than zero\");\r\n        require(_totalSupply > 0, \"Total supply must be greater than zero\");\r\n\r\n        initialPrice = _initialPrice;\r\n        totalSupply = _totalSupply;\r\n        estRemainingSupply = _totalSupply;\r\n        auctionActive = false;\r\n        token = new ChainvisionToken();\r\n    }\r\n\r\n    modifier activeAuction() {\r\n        require(isAuctionActive(), \"Auction is not active\");\r\n        _;\r\n    }\r\n\r\n    modifier notActiveAuction() {\r\n        require(!isAuctionActive(), \"Auction is still active\");\r\n        _;\r\n    }\r\n\r\n    modifier onlyOwnerOrInternal() {\r\n        require(\r\n            msg.sender == owner() || internalCall,\r\n            \"You are not authorized to make this call\"\r\n        );\r\n        _;\r\n    }\r\n\r\n    // Start the auction\r\n    function startAuction(uint duration) external onlyOwner {\r\n        require(!auctionActive, \"Auction is already active\");\r\n        startTime = block.timestamp;\r\n        endTime = block.timestamp + duration;\r\n        auctionActive = true;\r\n\r\n        emit AuctionStarted(startTime, endTime);\r\n    }\r\n\r\n    function finalizeAuction()\r\n        public\r\n        activeAuction\r\n        onlyOwnerOrInternal\r\n        nonReentrant\r\n    {\r\n        require(\r\n            !_isAuctionRunning() || _isSupplyDepleted(),\r\n            \"Auction duration has not passed or tokens still remain\"\r\n        );\r\n\r\n        auctionActive = false;\r\n        internalCall = false;\r\n\r\n        uint remainingTokens = totalSupply;\r\n        uint bidIndex = 0;\r\n\r\n        while (remainingTokens > 0 && bidIndex < bidsQueue.length) {\r\n            Bid memory currentBid = bidsQueue[bidIndex];\r\n            uint bidderAmount = currentBid.amount;\r\n            uint pricePerToken = finalPrice;\r\n\r\n            uint tokensToBuy = bidderAmount / pricePerToken;\r\n            if (tokensToBuy > remainingTokens) {\r\n                tokensToBuy = remainingTokens;\r\n            }\r\n\r\n            uint totalCost = tokensToBuy * pricePerToken;\r\n            uint refund = bidderAmount - totalCost;\r\n\r\n            if (tokensToBuy > 0) {\r\n                reservedTokensByBidder[currentBid.bidder] += tokensToBuy;\r\n                remainingTokens -= tokensToBuy;\r\n                emit TokensReserved(\r\n                    currentBid.bidder,\r\n                    tokensToBuy,\r\n                    pricePerToken\r\n                );\r\n            }\r\n\r\n            if (refund > 0) {\r\n                _refundAmount(currentBid.bidder, refund);\r\n                emit RefundAmount(currentBid.bidder, refund);\r\n            }\r\n\r\n            bidIndex++;\r\n        }\r\n\r\n        //Make full refund to bidders that did not get allocated any tokens\r\n        while (bidIndex < bidsQueue.length) {\r\n            Bid memory currentBid = bidsQueue[bidIndex];\r\n            _refundAmount(currentBid.bidder, currentBid.amount);\r\n            emit RefundAmount(currentBid.bidder, currentBid.amount);\r\n\r\n            bidIndex++;\r\n        }\r\n\r\n        //Reset auction variables\r\n        finalPrice = initialPrice;\r\n        estRemainingSupply = totalSupply;\r\n        delete bidsQueue;\r\n\r\n        // Emit the auction ended event\r\n        emit AuctionEnded(block.timestamp);\r\n    }\r\n\r\n    function bid() external payable activeAuction {\r\n        require(_isAuctionRunning(), \"Auction has ended\");\r\n        finalPrice = getCurrentPrice();\r\n        uint pricePerToken = finalPrice;\r\n        uint tokenReserved = msg.value / pricePerToken;\r\n\r\n        if (tokenReserved > estRemainingSupply) {\r\n            tokenReserved = estRemainingSupply;\r\n        }\r\n\r\n        estRemainingSupply -= tokenReserved;\r\n\r\n        bidsQueue.push(Bid({bidder: msg.sender, amount: msg.value}));\r\n\r\n        emit BidSuccess(msg.sender, pricePerToken);\r\n        if (_isSupplyDepleted()) {\r\n            internalCall = true;\r\n            finalizeAuction();\r\n        }\r\n    }\r\n\r\n    function getCurrentPrice() public view returns (uint) {\r\n        if (!_isAuctionRunning()) {\r\n            return finalPrice;\r\n        }\r\n        uint timeElapsed = block.timestamp - startTime;\r\n        uint priceDrop = (initialPrice - minPrice) / (endTime - startTime);\r\n        uint currentPrice = initialPrice - (priceDrop * timeElapsed);\r\n        return currentPrice < minPrice ? minPrice : currentPrice;\r\n    }\r\n\r\n    // Allow bidders to withdraw their reserved tokens after the auction ends\r\n    function withdrawTokens() external notActiveAuction nonReentrant {\r\n        uint reservedAmount = reservedTokensByBidder[msg.sender];\r\n        require(reservedAmount > 0, \"No reserved tokens to withdraw\");\r\n\r\n        reservedTokensByBidder[msg.sender] = 0;\r\n\r\n        token.mintTokens(msg.sender, reservedAmount);\r\n\r\n        emit TokensWithdrawn(msg.sender, reservedAmount);\r\n    }\r\n\r\n    // Withdraw funds to the auction owner\r\n    function withdrawFunds() external onlyOwner nonReentrant {\r\n        (bool success, ) = msg.sender.call{value: address(this).balance}(\"\");\r\n\r\n        require(success, \"Funds not withdrawn successfully\");\r\n    }\r\n\r\n    function _refundAmount(address bidder, uint amount) internal {\r\n        (bool success, ) = bidder.call{value: amount}(\"\");\r\n        require(success, \"Funds not refunded successfully\");\r\n    }\r\n\r\n    function _isAuctionRunning() internal view returns (bool) {\r\n        return block.timestamp < endTime ? true : false;\r\n    }\r\n\r\n    function _isSupplyDepleted() internal view returns (bool) {\r\n        return estRemainingSupply <= 0 ? true : false;\r\n    }\r\n\r\n    // Check if the auction is active\r\n    function isAuctionActive() public view returns (bool) {\r\n        return auctionActive;\r\n    }\r\n\r\n    function getRemainingTime() public view activeAuction returns (uint) {\r\n        return endTime - block.timestamp;\r\n    }\r\n\r\n    function getEndTime() public view returns (uint) {\r\n        return endTime;\r\n    }\r\n\r\n    function getStartTime() public view returns (uint) {\r\n        return startTime;\r\n    }\r\n\r\n    function getestRemainingSupply() public view returns (uint) {\r\n        return estRemainingSupply;\r\n    }\r\n\r\n    function getReservedToken() external view returns (uint) {\r\n        return reservedTokensByBidder[msg.sender];\r\n    }\r\n\r\n    function getCurrentTimesttamp() external view returns (uint) {\r\n        return block.timestamp;\r\n    }\r\n\r\n    function triggerDummyBlock() external {}\r\n}\r\n",
  "sourcePath": "C:\\Users\\jin_c\\Desktop\\NTU\\Sem4.1\\SC4053-BLOCKCHAIN TECHNOLOGY\\Dev_Project\\Dutch_Auction_Dev\\dutch-auction-contracts\\contracts\\DutchAuction.sol",
  "compiler": {
    "name": "solc",
    "version": "0.8.22+commit.4fc1097e.Emscripten.clang"
  },
  "schemaVersion": "3.4.16",
  "updatedAt": "2024-09-30T10:31:13.385Z",
  "networkType": "ethereum",
  "devdoc": {
    "errors": {
      "OwnableInvalidOwner(address)": [
        {
          "details": "The owner is not a valid owner account. (eg. `address(0)`)"
        }
      ],
      "OwnableUnauthorizedAccount(address)": [
        {
          "details": "The caller account is not authorized to perform an operation."
        }
      ],
      "ReentrancyGuardReentrantCall()": [
        {
          "details": "Unauthorized reentrant call."
        }
      ]
    },
    "kind": "dev",
    "methods": {
      "owner()": {
        "details": "Returns the address of the current owner."
      },
      "renounceOwnership()": {
        "details": "Leaves the contract without owner. It will not be possible to call `onlyOwner` functions. Can only be called by the current owner. NOTE: Renouncing ownership will leave the contract without an owner, thereby disabling any functionality that is only available to the owner."
      },
      "transferOwnership(address)": {
        "details": "Transfers ownership of the contract to a new account (`newOwner`). Can only be called by the current owner."
      }
    },
    "version": 1
  },
  "userdoc": {
    "kind": "user",
    "methods": {},
    "version": 1
  }
}