{
  "contractName": "DutchAuction",
  "abi": [
    {
      "inputs": [
        {
          "internalType": "uint256",
          "name": "_startingPrice",
          "type": "uint256"
        },
        {
          "internalType": "uint256",
          "name": "_discountRate",
          "type": "uint256"
        },
        {
          "internalType": "uint256",
          "name": "_totalSupply",
          "type": "uint256"
        }
      ],
      "stateMutability": "nonpayable",
      "type": "constructor"
    },
    {
      "anonymous": false,
      "inputs": [
        {
          "indexed": false,
          "internalType": "uint256",
          "name": "endAt",
          "type": "uint256"
        }
      ],
      "name": "AuctionEnded",
      "type": "event"
    },
    {
      "anonymous": false,
      "inputs": [
        {
          "indexed": false,
          "internalType": "uint256",
          "name": "startAt",
          "type": "uint256"
        },
        {
          "indexed": false,
          "internalType": "uint256",
          "name": "endAt",
          "type": "uint256"
        }
      ],
      "name": "AuctionStarted",
      "type": "event"
    },
    {
      "anonymous": false,
      "inputs": [
        {
          "indexed": true,
          "internalType": "address",
          "name": "bidder",
          "type": "address"
        },
        {
          "indexed": false,
          "internalType": "uint256",
          "name": "amount",
          "type": "uint256"
        },
        {
          "indexed": false,
          "internalType": "uint256",
          "name": "totalPrice",
          "type": "uint256"
        }
      ],
      "name": "TokensReserved",
      "type": "event"
    },
    {
      "anonymous": false,
      "inputs": [
        {
          "indexed": true,
          "internalType": "address",
          "name": "bidder",
          "type": "address"
        },
        {
          "indexed": false,
          "internalType": "uint256",
          "name": "amount",
          "type": "uint256"
        }
      ],
      "name": "TokensWithdrawn",
      "type": "event"
    },
    {
      "inputs": [],
      "name": "auctionActive",
      "outputs": [
        {
          "internalType": "bool",
          "name": "",
          "type": "bool"
        }
      ],
      "stateMutability": "view",
      "type": "function",
      "constant": true
    },
    {
      "inputs": [],
      "name": "auctionOwner",
      "outputs": [
        {
          "internalType": "address",
          "name": "",
          "type": "address"
        }
      ],
      "stateMutability": "view",
      "type": "function",
      "constant": true
    },
    {
      "inputs": [],
      "name": "discountRate",
      "outputs": [
        {
          "internalType": "uint256",
          "name": "",
          "type": "uint256"
        }
      ],
      "stateMutability": "view",
      "type": "function",
      "constant": true
    },
    {
      "inputs": [],
      "name": "endAt",
      "outputs": [
        {
          "internalType": "uint256",
          "name": "",
          "type": "uint256"
        }
      ],
      "stateMutability": "view",
      "type": "function",
      "constant": true
    },
    {
      "inputs": [],
      "name": "remainingSupply",
      "outputs": [
        {
          "internalType": "uint256",
          "name": "",
          "type": "uint256"
        }
      ],
      "stateMutability": "view",
      "type": "function",
      "constant": true
    },
    {
      "inputs": [],
      "name": "reservedTokens",
      "outputs": [
        {
          "internalType": "uint256",
          "name": "",
          "type": "uint256"
        }
      ],
      "stateMutability": "view",
      "type": "function",
      "constant": true
    },
    {
      "inputs": [
        {
          "internalType": "address",
          "name": "",
          "type": "address"
        }
      ],
      "name": "reservedTokensByBidder",
      "outputs": [
        {
          "internalType": "uint256",
          "name": "",
          "type": "uint256"
        }
      ],
      "stateMutability": "view",
      "type": "function",
      "constant": true
    },
    {
      "inputs": [],
      "name": "startAt",
      "outputs": [
        {
          "internalType": "uint256",
          "name": "",
          "type": "uint256"
        }
      ],
      "stateMutability": "view",
      "type": "function",
      "constant": true
    },
    {
      "inputs": [],
      "name": "startingPrice",
      "outputs": [
        {
          "internalType": "uint256",
          "name": "",
          "type": "uint256"
        }
      ],
      "stateMutability": "view",
      "type": "function",
      "constant": true
    },
    {
      "inputs": [],
      "name": "totalSupply",
      "outputs": [
        {
          "internalType": "uint256",
          "name": "",
          "type": "uint256"
        }
      ],
      "stateMutability": "view",
      "type": "function",
      "constant": true
    },
    {
      "inputs": [
        {
          "internalType": "uint256",
          "name": "duration",
          "type": "uint256"
        }
      ],
      "name": "startAuction",
      "outputs": [],
      "stateMutability": "nonpayable",
      "type": "function"
    },
    {
      "inputs": [],
      "name": "getCurrentPrice",
      "outputs": [
        {
          "internalType": "uint256",
          "name": "",
          "type": "uint256"
        }
      ],
      "stateMutability": "view",
      "type": "function",
      "constant": true
    },
    {
      "inputs": [],
      "name": "getAveragePrice",
      "outputs": [
        {
          "internalType": "uint256",
          "name": "",
          "type": "uint256"
        }
      ],
      "stateMutability": "view",
      "type": "function",
      "constant": true
    },
    {
      "inputs": [
        {
          "internalType": "uint256",
          "name": "amount",
          "type": "uint256"
        }
      ],
      "name": "reserveTokens",
      "outputs": [],
      "stateMutability": "payable",
      "type": "function",
      "payable": true
    },
    {
      "inputs": [],
      "name": "endAuction",
      "outputs": [],
      "stateMutability": "nonpayable",
      "type": "function"
    },
    {
      "inputs": [],
      "name": "withdrawTokens",
      "outputs": [],
      "stateMutability": "nonpayable",
      "type": "function"
    },
    {
      "inputs": [],
      "name": "withdrawFunds",
      "outputs": [],
      "stateMutability": "nonpayable",
      "type": "function"
    },
    {
      "inputs": [],
      "name": "getEndTime",
      "outputs": [
        {
          "internalType": "uint256",
          "name": "",
          "type": "uint256"
        }
      ],
      "stateMutability": "view",
      "type": "function",
      "constant": true
    },
    {
      "inputs": [],
      "name": "isAuctionActive",
      "outputs": [
        {
          "internalType": "bool",
          "name": "",
          "type": "bool"
        }
      ],
      "stateMutability": "view",
      "type": "function",
      "constant": true
    },
    {
      "inputs": [],
      "name": "getRemainingSupply",
      "outputs": [
        {
          "internalType": "uint256",
          "name": "",
          "type": "uint256"
        }
      ],
      "stateMutability": "view",
      "type": "function",
      "constant": true
    },
    {
      "inputs": [],
      "name": "getReservedTokens",
      "outputs": [
        {
          "internalType": "uint256",
          "name": "",
          "type": "uint256"
        }
      ],
      "stateMutability": "view",
      "type": "function",
      "constant": true
    }
  ],
  "bytecode": "0x608060405234801562000010575f80fd5b5060405162001869380380620018698339818101604052810190620000369190620001bf565b5f83116200007b576040517f08c379a000000000000000000000000000000000000000000000000000000000815260040162000072906200029c565b60405180910390fd5b5f8211620000c0576040517f08c379a0000000000000000000000000000000000000000000000000000000008152600401620000b79062000330565b60405180910390fd5b5f811162000105576040517f08c379a0000000000000000000000000000000000000000000000000000000008152600401620000fc90620003c4565b60405180910390fd5b825f819055508160018190555080600481905550806005819055505f60075f6101000a81548160ff02191690831515021790555033600760016101000a81548173ffffffffffffffffffffffffffffffffffffffff021916908373ffffffffffffffffffffffffffffffffffffffff160217905550505050620003e4565b5f80fd5b5f819050919050565b6200019b8162000187565b8114620001a6575f80fd5b50565b5f81519050620001b98162000190565b92915050565b5f805f60608486031215620001d957620001d862000183565b5b5f620001e886828701620001a9565b9350506020620001fb86828701620001a9565b92505060406200020e86828701620001a9565b9150509250925092565b5f82825260208201905092915050565b7f5374617274696e67207072696365206d757374206265206772656174657220745f8201527f68616e207a65726f000000000000000000000000000000000000000000000000602082015250565b5f6200028460288362000218565b9150620002918262000228565b604082019050919050565b5f6020820190508181035f830152620002b58162000276565b9050919050565b7f446973636f756e742072617465206d75737420626520677265617465722074685f8201527f616e207a65726f00000000000000000000000000000000000000000000000000602082015250565b5f6200031860278362000218565b91506200032582620002bc565b604082019050919050565b5f6020820190508181035f83015262000349816200030a565b9050919050565b7f546f74616c20737570706c79206d7573742062652067726561746572207468615f8201527f6e207a65726f0000000000000000000000000000000000000000000000000000602082015250565b5f620003ac60268362000218565b9150620003b98262000350565b604082019050919050565b5f6020820190508181035f830152620003dd816200039e565b9050919050565b61147780620003f25f395ff3fe608060405260043610610129575f3560e01c8063c70fcf67116100aa578063d6fbf2021161006e578063d6fbf2021461037d578063da0239a6146103a7578063e4b7fb73146103d1578063e6c0e6d5146103fb578063eb91d37e14610425578063fe67a54b1461044f57610129565b8063c70fcf67146102a7578063c7446565146102e3578063d031370b1461030d578063d1b4b9a314610329578063d3924aaf1461035357610129565b80637cc3ae8c116100f15780637cc3ae8c146101e95780638d8f2adb146102135780639222800614610229578063a16f377414610253578063a6be46aa1461027d57610129565b8063065de74c1461012d57806315a553471461015557806318160ddd1461017f57806324600fc3146101a9578063439f5ac2146101bf575b5f80fd5b348015610138575f80fd5b50610153600480360381019061014e9190610cfe565b610465565b005b348015610160575f80fd5b506101696105b7565b6040516101769190610d38565b60405180910390f35b34801561018a575f80fd5b506101936105bd565b6040516101a09190610d38565b60405180910390f35b3480156101b4575f80fd5b506101bd6105c3565b005b3480156101ca575f80fd5b506101d36106bb565b6040516101e09190610d38565b60405180910390f35b3480156101f4575f80fd5b506101fd6106c4565b60405161020a9190610d38565b60405180910390f35b34801561021e575f80fd5b506102276106ca565b005b348015610234575f80fd5b5061023d61082f565b60405161024a9190610d6b565b60405180910390f35b34801561025e575f80fd5b50610267610841565b6040516102749190610d38565b60405180910390f35b348015610288575f80fd5b5061029161084a565b60405161029e9190610d38565b60405180910390f35b3480156102b2575f80fd5b506102cd60048036038101906102c89190610dde565b6108a2565b6040516102da9190610d38565b60405180910390f35b3480156102ee575f80fd5b506102f76108b7565b6040516103049190610d38565b60405180910390f35b61032760048036038101906103229190610cfe565b6108bd565b005b348015610334575f80fd5b5061033d610ae8565b60405161034a9190610d6b565b60405180910390f35b34801561035e575f80fd5b50610367610afd565b6040516103749190610e18565b60405180910390f35b348015610388575f80fd5b50610391610b23565b60405161039e9190610d38565b60405180910390f35b3480156103b2575f80fd5b506103bb610b28565b6040516103c89190610d38565b60405180910390f35b3480156103dc575f80fd5b506103e5610b2e565b6040516103f29190610d38565b60405180910390f35b348015610406575f80fd5b5061040f610b37565b60405161041c9190610d38565b60405180910390f35b348015610430575f80fd5b50610439610b3d565b6040516104469190610d38565b60405180910390f35b34801561045a575f80fd5b50610463610bd6565b005b600760019054906101000a900473ffffffffffffffffffffffffffffffffffffffff1673ffffffffffffffffffffffffffffffffffffffff163373ffffffffffffffffffffffffffffffffffffffff16146104f5576040517f08c379a00000000000000000000000000000000000000000000000000000000081526004016104ec90610eb1565b60405180910390fd5b60075f9054906101000a900460ff1615610544576040517f08c379a000000000000000000000000000000000000000000000000000000000815260040161053b90610f19565b60405180910390fd5b4260028190555080426105579190610f64565b600381905550600160075f6101000a81548160ff0219169083151502179055507ff8910119ddbef5440c54532457dfe8250a10ed39e583292818f44724b9e1344c6002546003546040516105ac929190610f97565b60405180910390a150565b60065481565b60045481565b600760019054906101000a900473ffffffffffffffffffffffffffffffffffffffff1673ffffffffffffffffffffffffffffffffffffffff163373ffffffffffffffffffffffffffffffffffffffff1614610653576040517f08c379a000000000000000000000000000000000000000000000000000000000815260040161064a9061102e565b60405180910390fd5b600760019054906101000a900473ffffffffffffffffffffffffffffffffffffffff1673ffffffffffffffffffffffffffffffffffffffff166108fc4790811502906040515f60405180830381858888f193505050501580156106b8573d5f803e3d5ffd5b50565b5f600354905090565b60035481565b60075f9054906101000a900460ff1615610719576040517f08c379a000000000000000000000000000000000000000000000000000000000815260040161071090611096565b60405180910390fd5b5f60085f3373ffffffffffffffffffffffffffffffffffffffff1673ffffffffffffffffffffffffffffffffffffffff1681526020019081526020015f205490505f811161079c576040517f08c379a0000000000000000000000000000000000000000000000000000000008152600401610793906110fe565b60405180910390fd5b5f60085f3373ffffffffffffffffffffffffffffffffffffffff1673ffffffffffffffffffffffffffffffffffffffff1681526020019081526020015f20819055503373ffffffffffffffffffffffffffffffffffffffff167f6352c5382c4a4578e712449ca65e83cdb392d045dfcf1cad9615189db2da244b826040516108249190610d38565b60405180910390a250565b60075f9054906101000a900460ff1681565b5f600654905090565b5f806004541161088f576040517f08c379a000000000000000000000000000000000000000000000000000000000815260040161088690611166565b60405180910390fd5b60025f5461089d91906111b1565b905090565b6008602052805f5260405f205f915090505481565b60025481565b60075f9054906101000a900460ff1661090b576040517f08c379a00000000000000000000000000000000000000000000000000000000081526004016109029061122b565b60405180910390fd5b5f8111801561091c57506005548111155b61095b576040517f08c379a000000000000000000000000000000000000000000000000000000000815260040161095290611293565b60405180910390fd5b5f610964610b3d565b90505f828261097391906112b1565b9050803410156109b8576040517f08c379a00000000000000000000000000000000000000000000000000000000081526004016109af90611362565b60405180910390fd5b8260065f8282546109c99190610f64565b925050819055508260055f8282546109e19190611380565b925050819055508260085f3373ffffffffffffffffffffffffffffffffffffffff1673ffffffffffffffffffffffffffffffffffffffff1681526020019081526020015f205f828254610a349190610f64565b9250508190555080341115610a93573373ffffffffffffffffffffffffffffffffffffffff166108fc8234610a699190611380565b90811502906040515f60405180830381858888f19350505050158015610a91573d5f803e3d5ffd5b505b3373ffffffffffffffffffffffffffffffffffffffff167fea2d30edb838f5a3221f85861ab9727d5449c474cc03ffa6a78a0a9e7f084f658483604051610adb929190610f97565b60405180910390a2505050565b5f60075f9054906101000a900460ff16905090565b600760019054906101000a900473ffffffffffffffffffffffffffffffffffffffff1681565b5f5481565b60055481565b5f600554905090565b60015481565b5f60075f9054906101000a900460ff16610b8c576040517f08c379a0000000000000000000000000000000000000000000000000000000008152600401610b839061122b565b60405180910390fd5b5f60025442610b9b9190611380565b90505f60015482610bac91906112b1565b9050805f541115610bcd57805f54610bc49190611380565b92505050610bd3565b5f925050505b90565b60075f9054906101000a900460ff16610c24576040517f08c379a0000000000000000000000000000000000000000000000000000000008152600401610c1b9061122b565b60405180910390fd5b60035442101580610c3657505f600554145b610c75576040517f08c379a0000000000000000000000000000000000000000000000000000000008152600401610c6c90611423565b60405180910390fd5b5f60075f6101000a81548160ff0219169083151502179055507f45806e512b1f4f10e33e8b3cb64d1d11d998d8c554a95e0841fc1c701278bd5d42604051610cbd9190610d38565b60405180910390a1565b5f80fd5b5f819050919050565b610cdd81610ccb565b8114610ce7575f80fd5b50565b5f81359050610cf881610cd4565b92915050565b5f60208284031215610d1357610d12610cc7565b5b5f610d2084828501610cea565b91505092915050565b610d3281610ccb565b82525050565b5f602082019050610d4b5f830184610d29565b92915050565b5f8115159050919050565b610d6581610d51565b82525050565b5f602082019050610d7e5f830184610d5c565b92915050565b5f73ffffffffffffffffffffffffffffffffffffffff82169050919050565b5f610dad82610d84565b9050919050565b610dbd81610da3565b8114610dc7575f80fd5b50565b5f81359050610dd881610db4565b92915050565b5f60208284031215610df357610df2610cc7565b5b5f610e0084828501610dca565b91505092915050565b610e1281610da3565b82525050565b5f602082019050610e2b5f830184610e09565b92915050565b5f82825260208201905092915050565b7f4f6e6c792061756374696f6e206f776e65722063616e207374617274207468655f8201527f2061756374696f6e000000000000000000000000000000000000000000000000602082015250565b5f610e9b602883610e31565b9150610ea682610e41565b604082019050919050565b5f6020820190508181035f830152610ec881610e8f565b9050919050565b7f41756374696f6e20697320616c726561647920616374697665000000000000005f82015250565b5f610f03601983610e31565b9150610f0e82610ecf565b602082019050919050565b5f6020820190508181035f830152610f3081610ef7565b9050919050565b7f4e487b71000000000000000000000000000000000000000000000000000000005f52601160045260245ffd5b5f610f6e82610ccb565b9150610f7983610ccb565b9250828201905080821115610f9157610f90610f37565b5b92915050565b5f604082019050610faa5f830185610d29565b610fb76020830184610d29565b9392505050565b7f4f6e6c792061756374696f6e206f776e65722063616e207769746864726177205f8201527f66756e6473000000000000000000000000000000000000000000000000000000602082015250565b5f611018602583610e31565b915061102382610fbe565b604082019050919050565b5f6020820190508181035f8301526110458161100c565b9050919050565b7f41756374696f6e206973207374696c6c206163746976650000000000000000005f82015250565b5f611080601783610e31565b915061108b8261104c565b602082019050919050565b5f6020820190508181035f8301526110ad81611074565b9050919050565b7f4e6f20726573657276656420746f6b656e7320746f20776974686472617700005f82015250565b5f6110e8601e83610e31565b91506110f3826110b4565b602082019050919050565b5f6020820190508181035f830152611115816110dc565b9050919050565b7f4e6f20746f6b656e7320617661696c61626c65000000000000000000000000005f82015250565b5f611150601383610e31565b915061115b8261111c565b602082019050919050565b5f6020820190508181035f83015261117d81611144565b9050919050565b7f4e487b71000000000000000000000000000000000000000000000000000000005f52601260045260245ffd5b5f6111bb82610ccb565b91506111c683610ccb565b9250826111d6576111d5611184565b5b828204905092915050565b7f41756374696f6e206973206e6f742061637469766500000000000000000000005f82015250565b5f611215601583610e31565b9150611220826111e1565b602082019050919050565b5f6020820190508181035f83015261124281611209565b9050919050565b7f496e76616c696420746f6b656e20616d6f756e740000000000000000000000005f82015250565b5f61127d601483610e31565b915061128882611249565b602082019050919050565b5f6020820190508181035f8301526112aa81611271565b9050919050565b5f6112bb82610ccb565b91506112c683610ccb565b92508282026112d481610ccb565b915082820484148315176112eb576112ea610f37565b5b5092915050565b7f496e73756666696369656e742045544820746f20636f76657220746f6b656e205f8201527f636f737400000000000000000000000000000000000000000000000000000000602082015250565b5f61134c602483610e31565b9150611357826112f2565b604082019050919050565b5f6020820190508181035f83015261137981611340565b9050919050565b5f61138a82610ccb565b915061139583610ccb565b92508282039050818111156113ad576113ac610f37565b5b92915050565b7f41756374696f6e206475726174696f6e20686173206e6f7420706173736564205f8201527f6f7220746f6b656e73207374696c6c2072656d61696e00000000000000000000602082015250565b5f61140d603683610e31565b9150611418826113b3565b604082019050919050565b5f6020820190508181035f83015261143a81611401565b905091905056fea2646970667358221220e94cb87e837f3a657d7c439a8f1b6dc5e5ae2087b283bb94c95d9b70b1ab04e864736f6c63430008150033",
  "immutableReferences": {},
  "source": "// SPDX-License-Identifier: MIT\r\npragma solidity ^0.8.0;\r\n\r\ncontract DutchAuction {\r\n    uint public startingPrice;\r\n    uint public discountRate;\r\n    uint public startAt;\r\n    uint public endAt;\r\n    uint public totalSupply;\r\n    uint public remainingSupply;\r\n    uint public reservedTokens;\r\n    bool public auctionActive;\r\n    address public auctionOwner;\r\n\r\n    // Mapping to track how many tokens each bidder reserved\r\n    mapping(address => uint) public reservedTokensByBidder;\r\n\r\n    event AuctionStarted(uint startAt, uint endAt);\r\n    event TokensReserved(address indexed bidder, uint amount, uint totalPrice);\r\n    event AuctionEnded(uint endAt);\r\n    event TokensWithdrawn(address indexed bidder, uint amount);\r\n\r\n    // Constructor with require checks to avoid invalid input values\r\n    constructor(uint _startingPrice, uint _discountRate, uint _totalSupply) {\r\n        require(_startingPrice > 0, \"Starting price must be greater than zero\");\r\n        require(_discountRate > 0, \"Discount rate must be greater than zero\");\r\n        require(_totalSupply > 0, \"Total supply must be greater than zero\");\r\n\r\n        startingPrice = _startingPrice;\r\n        discountRate = _discountRate;\r\n        totalSupply = _totalSupply;\r\n        remainingSupply = _totalSupply;\r\n        auctionActive = false;\r\n        auctionOwner = msg.sender;  // Set the owner\r\n    }\r\n\r\n    // Start the auction\r\n    function startAuction(uint duration) external {\r\n        require(msg.sender == auctionOwner, \"Only auction owner can start the auction\");\r\n        require(!auctionActive, \"Auction is already active\");\r\n        startAt = block.timestamp;\r\n        endAt = block.timestamp + duration;\r\n        auctionActive = true;\r\n\r\n        emit AuctionStarted(startAt, endAt);\r\n    }\r\n\r\n    // Fetch the current price based on time elapsed\r\n    function getCurrentPrice() public view returns (uint) {\r\n        require(auctionActive, \"Auction is not active\");\r\n        uint timeElapsed = block.timestamp - startAt;\r\n        uint discount = timeElapsed * discountRate;\r\n        if (startingPrice > discount) {\r\n            return startingPrice - discount;\r\n        } else {\r\n            return 0;\r\n        }\r\n    }\r\n\r\n    // New function to fetch average price\r\n    function getAveragePrice() public view returns (uint) {\r\n        require(totalSupply > 0, \"No tokens available\");\r\n        return startingPrice / 2;  // Example logic for calculating average price\r\n    }\r\n\r\n    // Reserve tokens and accept payment\r\n    function reserveTokens(uint amount) public payable {\r\n        require(auctionActive, \"Auction is not active\");\r\n        require(amount > 0 && amount <= remainingSupply, \"Invalid token amount\");\r\n        uint currentPrice = getCurrentPrice();\r\n        uint totalPrice = currentPrice * amount;\r\n        require(msg.value >= totalPrice, \"Insufficient ETH to cover token cost\");\r\n\r\n        reservedTokens += amount;\r\n        remainingSupply -= amount;\r\n        reservedTokensByBidder[msg.sender] += amount;  // Track bidder's reserved tokens\r\n\r\n        // Refund excess ETH if the user overpaid\r\n        if (msg.value > totalPrice) {\r\n            payable(msg.sender).transfer(msg.value - totalPrice);\r\n        }\r\n\r\n        emit TokensReserved(msg.sender, amount, totalPrice);\r\n    }\r\n\r\n    // End the auction\r\n    function endAuction() public {\r\n    require(auctionActive, \"Auction is not active\");\r\n    require(block.timestamp >= endAt || remainingSupply == 0, \"Auction duration has not passed or tokens still remain\");\r\n\r\n    auctionActive = false;\r\n\r\n    // Emit the auction ended event\r\n    emit AuctionEnded(block.timestamp);  // Emit current time, not endAt\r\n\r\n    // Reset all auction variables if needed\r\n    // Optional: Consider if the auction should reset certain values (remainingSupply, reservedTokens, etc.)\r\n    }\r\n\r\n    // Allow bidders to withdraw their reserved tokens after the auction ends\r\n    function withdrawTokens() public {\r\n        require(!auctionActive, \"Auction is still active\");\r\n        uint reservedAmount = reservedTokensByBidder[msg.sender];\r\n        require(reservedAmount > 0, \"No reserved tokens to withdraw\");\r\n\r\n        reservedTokensByBidder[msg.sender] = 0;  // Reset the reserved tokens for the user\r\n        emit TokensWithdrawn(msg.sender, reservedAmount);\r\n\r\n        // Logic to transfer tokens would go here (if token management was implemented)\r\n    }\r\n\r\n    // Withdraw funds to the auction owner\r\n    function withdrawFunds() public {\r\n        require(msg.sender == auctionOwner, \"Only auction owner can withdraw funds\");\r\n        payable(auctionOwner).transfer(address(this).balance);\r\n    }\r\n\r\n    // Fetch the auction end time\r\n    function getEndTime() public view returns (uint) {\r\n        return endAt;\r\n    }\r\n\r\n    // Check if the auction is active\r\n    function isAuctionActive() public view returns (bool) {\r\n        return auctionActive;\r\n    }\r\n\r\n    // Fetch the remaining token supply\r\n    function getRemainingSupply() public view returns (uint) {\r\n        return remainingSupply;\r\n    }\r\n\r\n    // Fetch the reserved tokens\r\n    function getReservedTokens() public view returns (uint) {\r\n        return reservedTokens;\r\n    }\r\n}\r\n",
  "sourcePath": "C:\\Users\\ihate\\OneDrive\\Desktop\\Dutchauction\\my-dutch-auction\\dutch-auction-contracts\\contracts\\DutchAuction.sol",
  "compiler": {
    "name": "solc",
    "version": "0.8.21+commit.d9974bed.Emscripten.clang"
  },
  "schemaVersion": "3.4.16",
  "updatedAt": "2024-09-25T11:50:45.778Z",
  "networkType": "ethereum",
  "devdoc": {
    "kind": "dev",
    "methods": {},
    "version": 1
  },
  "userdoc": {
    "kind": "user",
    "methods": {},
    "version": 1
  }
}