{
  "contractName": "DutchAuction",
  "abi": [
    {
      "inputs": [
        {
          "internalType": "uint256",
          "name": "_initialPrice",
          "type": "uint256"
        },
        {
          "internalType": "uint256",
          "name": "_discountRate",
          "type": "uint256"
        },
        {
          "internalType": "uint256",
          "name": "_totalSupply",
          "type": "uint256"
        },
        {
          "internalType": "address",
          "name": "_tokenAddress",
          "type": "address"
        }
      ],
      "stateMutability": "nonpayable",
      "type": "constructor"
    },
    {
      "inputs": [
        {
          "internalType": "address",
          "name": "owner",
          "type": "address"
        }
      ],
      "name": "OwnableInvalidOwner",
      "type": "error"
    },
    {
      "inputs": [
        {
          "internalType": "address",
          "name": "account",
          "type": "address"
        }
      ],
      "name": "OwnableUnauthorizedAccount",
      "type": "error"
    },
    {
      "anonymous": false,
      "inputs": [
        {
          "indexed": false,
          "internalType": "uint256",
          "name": "endAt",
          "type": "uint256"
        }
      ],
      "name": "AuctionEnded",
      "type": "event"
    },
    {
      "anonymous": false,
      "inputs": [
        {
          "indexed": false,
          "internalType": "uint256",
          "name": "startAt",
          "type": "uint256"
        },
        {
          "indexed": false,
          "internalType": "uint256",
          "name": "endAt",
          "type": "uint256"
        }
      ],
      "name": "AuctionStarted",
      "type": "event"
    },
    {
      "anonymous": false,
      "inputs": [
        {
          "indexed": true,
          "internalType": "address",
          "name": "previousOwner",
          "type": "address"
        },
        {
          "indexed": true,
          "internalType": "address",
          "name": "newOwner",
          "type": "address"
        }
      ],
      "name": "OwnershipTransferred",
      "type": "event"
    },
    {
      "anonymous": false,
      "inputs": [
        {
          "indexed": true,
          "internalType": "address",
          "name": "bidder",
          "type": "address"
        },
        {
          "indexed": false,
          "internalType": "uint256",
          "name": "amount",
          "type": "uint256"
        },
        {
          "indexed": false,
          "internalType": "uint256",
          "name": "totalPrice",
          "type": "uint256"
        }
      ],
      "name": "TokensReserved",
      "type": "event"
    },
    {
      "anonymous": false,
      "inputs": [
        {
          "indexed": true,
          "internalType": "address",
          "name": "bidder",
          "type": "address"
        },
        {
          "indexed": false,
          "internalType": "uint256",
          "name": "amount",
          "type": "uint256"
        }
      ],
      "name": "TokensWithdrawn",
      "type": "event"
    },
    {
      "inputs": [],
      "name": "auctionActive",
      "outputs": [
        {
          "internalType": "bool",
          "name": "",
          "type": "bool"
        }
      ],
      "stateMutability": "view",
      "type": "function",
      "constant": true
    },
    {
      "inputs": [],
      "name": "discountRate",
      "outputs": [
        {
          "internalType": "uint256",
          "name": "",
          "type": "uint256"
        }
      ],
      "stateMutability": "view",
      "type": "function",
      "constant": true
    },
    {
      "inputs": [],
      "name": "endAt",
      "outputs": [
        {
          "internalType": "uint256",
          "name": "",
          "type": "uint256"
        }
      ],
      "stateMutability": "view",
      "type": "function",
      "constant": true
    },
    {
      "inputs": [],
      "name": "initialPrice",
      "outputs": [
        {
          "internalType": "uint256",
          "name": "",
          "type": "uint256"
        }
      ],
      "stateMutability": "view",
      "type": "function",
      "constant": true
    },
    {
      "inputs": [],
      "name": "owner",
      "outputs": [
        {
          "internalType": "address",
          "name": "",
          "type": "address"
        }
      ],
      "stateMutability": "view",
      "type": "function",
      "constant": true
    },
    {
      "inputs": [],
      "name": "remainingSupply",
      "outputs": [
        {
          "internalType": "uint256",
          "name": "",
          "type": "uint256"
        }
      ],
      "stateMutability": "view",
      "type": "function",
      "constant": true
    },
    {
      "inputs": [],
      "name": "renounceOwnership",
      "outputs": [],
      "stateMutability": "nonpayable",
      "type": "function"
    },
    {
      "inputs": [],
      "name": "reservedTokens",
      "outputs": [
        {
          "internalType": "uint256",
          "name": "",
          "type": "uint256"
        }
      ],
      "stateMutability": "view",
      "type": "function",
      "constant": true
    },
    {
      "inputs": [
        {
          "internalType": "address",
          "name": "",
          "type": "address"
        }
      ],
      "name": "reservedTokensByBidder",
      "outputs": [
        {
          "internalType": "uint256",
          "name": "",
          "type": "uint256"
        }
      ],
      "stateMutability": "view",
      "type": "function",
      "constant": true
    },
    {
      "inputs": [],
      "name": "startAt",
      "outputs": [
        {
          "internalType": "uint256",
          "name": "",
          "type": "uint256"
        }
      ],
      "stateMutability": "view",
      "type": "function",
      "constant": true
    },
    {
      "inputs": [],
      "name": "token",
      "outputs": [
        {
          "internalType": "contract ChainvisionToken",
          "name": "",
          "type": "address"
        }
      ],
      "stateMutability": "view",
      "type": "function",
      "constant": true
    },
    {
      "inputs": [],
      "name": "totalSupply",
      "outputs": [
        {
          "internalType": "uint256",
          "name": "",
          "type": "uint256"
        }
      ],
      "stateMutability": "view",
      "type": "function",
      "constant": true
    },
    {
      "inputs": [
        {
          "internalType": "address",
          "name": "newOwner",
          "type": "address"
        }
      ],
      "name": "transferOwnership",
      "outputs": [],
      "stateMutability": "nonpayable",
      "type": "function"
    },
    {
      "inputs": [
        {
          "internalType": "uint256",
          "name": "duration",
          "type": "uint256"
        }
      ],
      "name": "startAuction",
      "outputs": [],
      "stateMutability": "nonpayable",
      "type": "function"
    },
    {
      "inputs": [],
      "name": "getCurrentPrice",
      "outputs": [
        {
          "internalType": "uint256",
          "name": "",
          "type": "uint256"
        }
      ],
      "stateMutability": "view",
      "type": "function",
      "constant": true
    },
    {
      "inputs": [],
      "name": "getAveragePrice",
      "outputs": [
        {
          "internalType": "uint256",
          "name": "",
          "type": "uint256"
        }
      ],
      "stateMutability": "view",
      "type": "function",
      "constant": true
    },
    {
      "inputs": [
        {
          "internalType": "uint256",
          "name": "amount",
          "type": "uint256"
        }
      ],
      "name": "reserveTokens",
      "outputs": [],
      "stateMutability": "payable",
      "type": "function",
      "payable": true
    },
    {
      "inputs": [],
      "name": "endAuction",
      "outputs": [],
      "stateMutability": "nonpayable",
      "type": "function"
    },
    {
      "inputs": [],
      "name": "withdrawTokens",
      "outputs": [],
      "stateMutability": "nonpayable",
      "type": "function"
    },
    {
      "inputs": [],
      "name": "withdrawFunds",
      "outputs": [],
      "stateMutability": "nonpayable",
      "type": "function"
    },
    {
      "inputs": [],
      "name": "getEndTime",
      "outputs": [
        {
          "internalType": "uint256",
          "name": "",
          "type": "uint256"
        }
      ],
      "stateMutability": "view",
      "type": "function",
      "constant": true
    },
    {
      "inputs": [],
      "name": "isAuctionActive",
      "outputs": [
        {
          "internalType": "bool",
          "name": "",
          "type": "bool"
        }
      ],
      "stateMutability": "view",
      "type": "function",
      "constant": true
    },
    {
      "inputs": [],
      "name": "getRemainingSupply",
      "outputs": [
        {
          "internalType": "uint256",
          "name": "",
          "type": "uint256"
        }
      ],
      "stateMutability": "view",
      "type": "function",
      "constant": true
    },
    {
      "inputs": [],
      "name": "getReservedTokens",
      "outputs": [
        {
          "internalType": "uint256",
          "name": "",
          "type": "uint256"
        }
      ],
      "stateMutability": "view",
      "type": "function",
      "constant": true
    }
  ],
  "bytecode": "0x608060405234801561001057600080fd5b50604051610d9d380380610d9d83398101604081905261002f91610212565b338061005657604051631e4fbdf760e01b8152600060048201526024015b60405180910390fd5b61005f816101c2565b50600084116100c15760405162461bcd60e51b815260206004820152602860248201527f5374617274696e67207072696365206d7573742062652067726561746572207460448201526768616e207a65726f60c01b606482015260840161004d565b600083116101215760405162461bcd60e51b815260206004820152602760248201527f446973636f756e742072617465206d7573742062652067726561746572207468604482015266616e207a65726f60c81b606482015260840161004d565b600082116101805760405162461bcd60e51b815260206004820152602660248201527f546f74616c20737570706c79206d7573742062652067726561746572207468616044820152656e207a65726f60d01b606482015260840161004d565b60029390935560039190915560068190556007556009805460ff19169055600180546001600160a01b0319166001600160a01b03909216919091179055610261565b600080546001600160a01b038381166001600160a01b0319831681178455604051919092169283917f8be0079c531659141344cd1fd0a4f28419497f9722a3daafe3b4186f6b6457e09190a35050565b6000806000806080858703121561022857600080fd5b845160208601516040870151606088015192965090945092506001600160a01b038116811461025657600080fd5b939692955090935050565b610b2d806102706000396000f3fe60806040526004361061014b5760003560e01c8063a6be46aa116100b6578063e4b7fb731161006f578063e4b7fb731461033b578063e6c0e6d514610350578063eb91d37e14610366578063f2fde38b1461037b578063fc0c546a1461039b578063fe67a54b146103bb57600080fd5b8063a6be46aa146102a2578063c70fcf67146102b7578063c7446565146102e4578063d031370b146102fa578063d1b4b9a31461030d578063da0239a61461032557600080fd5b8063715018a611610108578063715018a6146101f15780637cc3ae8c146102065780638d8f2adb1461021c5780638da5cb5b146102315780639222800614610263578063a16f37741461028d57600080fd5b8063065de74c1461015057806315a553471461017257806318160ddd1461019b5780631d0806ae146101b157806324600fc3146101c7578063439f5ac2146101dc575b600080fd5b34801561015c57600080fd5b5061017061016b366004610a04565b6103d0565b005b34801561017e57600080fd5b5061018860085481565b6040519081526020015b60405180910390f35b3480156101a757600080fd5b5061018860065481565b3480156101bd57600080fd5b5061018860025481565b3480156101d357600080fd5b50610170610497565b3480156101e857600080fd5b50600554610188565b3480156101fd57600080fd5b506101706104ce565b34801561021257600080fd5b5061018860055481565b34801561022857600080fd5b506101706104e2565b34801561023d57600080fd5b506000546001600160a01b03165b6040516001600160a01b039091168152602001610192565b34801561026f57600080fd5b5060095461027d9060ff1681565b6040519015158152602001610192565b34801561029957600080fd5b50600854610188565b3480156102ae57600080fd5b506101886105e1565b3480156102c357600080fd5b506101886102d2366004610a1d565b600a6020526000908152604090205481565b3480156102f057600080fd5b5061018860045481565b610170610308366004610a04565b61063d565b34801561031957600080fd5b5060095460ff1661027d565b34801561033157600080fd5b5061018860075481565b34801561034757600080fd5b50600754610188565b34801561035c57600080fd5b5061018860035481565b34801561037257600080fd5b506101886107fe565b34801561038757600080fd5b50610170610396366004610a1d565b61086f565b3480156103a757600080fd5b5060015461024b906001600160a01b031681565b3480156103c757600080fd5b506101706108aa565b6103d8610987565b60095460ff16156104305760405162461bcd60e51b815260206004820152601960248201527f41756374696f6e20697320616c7265616479206163746976650000000000000060448201526064015b60405180910390fd5b426004819055610441908290610a63565b60058190556009805460ff191660011790556004546040517ff8910119ddbef5440c54532457dfe8250a10ed39e583292818f44724b9e1344c9261048c928252602082015260400190565b60405180910390a150565b61049f610987565b60405130904780156108fc02916000818181858888f193505050501580156104cb573d6000803e3d6000fd5b50565b6104d6610987565b6104e060006109b4565b565b60095460ff16156105355760405162461bcd60e51b815260206004820152601760248201527f41756374696f6e206973207374696c6c206163746976650000000000000000006044820152606401610427565b336000908152600a6020526040902054806105925760405162461bcd60e51b815260206004820152601e60248201527f4e6f20726573657276656420746f6b656e7320746f20776974686472617700006044820152606401610427565b336000818152600a602052604080822091909155517f6352c5382c4a4578e712449ca65e83cdb392d045dfcf1cad9615189db2da244b906105d69084815260200190565b60405180910390a250565b6000806006541161062a5760405162461bcd60e51b81526020600482015260136024820152724e6f20746f6b656e7320617661696c61626c6560681b6044820152606401610427565b600280546106389190610a7c565b905090565b60095460ff1661065f5760405162461bcd60e51b815260040161042790610a9e565b60008111801561067157506007548111155b6106b45760405162461bcd60e51b8152602060048201526014602482015273125b9d985b1a59081d1bdad95b88185b5bdd5b9d60621b6044820152606401610427565b60006106be6107fe565b905060006106cc8383610acd565b90508034101561072a5760405162461bcd60e51b8152602060048201526024808201527f496e73756666696369656e742045544820746f20636f76657220746f6b656e2060448201526318dbdcdd60e21b6064820152608401610427565b826008600082825461073c9190610a63565b9250508190555082600760008282546107559190610ae4565b9091555050336000908152600a602052604081208054859290610779908490610a63565b9091555050348110156107be57336108fc6107948334610ae4565b6040518115909202916000818181858888f193505050501580156107bc573d6000803e3d6000fd5b505b604080518481526020810183905233917fea2d30edb838f5a3221f85861ab9727d5449c474cc03ffa6a78a0a9e7f084f65910160405180910390a2505050565b60095460009060ff166108235760405162461bcd60e51b815260040161042790610a9e565b6000600454426108339190610ae4565b90506000600354826108459190610acd565b9050806002541115610866578060025461085f9190610ae4565b9250505090565b60009250505090565b610877610987565b6001600160a01b0381166108a157604051631e4fbdf760e01b815260006004820152602401610427565b6104cb816109b4565b60095460ff166108cc5760405162461bcd60e51b815260040161042790610a9e565b600554421015806108dd5750600754155b6109485760405162461bcd60e51b815260206004820152603660248201527f41756374696f6e206475726174696f6e20686173206e6f74207061737365642060448201527537b9103a37b5b2b7399039ba34b636103932b6b0b4b760511b6064820152608401610427565b6009805460ff191690556040514281527f45806e512b1f4f10e33e8b3cb64d1d11d998d8c554a95e0841fc1c701278bd5d9060200160405180910390a1565b6000546001600160a01b031633146104e05760405163118cdaa760e01b8152336004820152602401610427565b600080546001600160a01b038381166001600160a01b0319831681178455604051919092169283917f8be0079c531659141344cd1fd0a4f28419497f9722a3daafe3b4186f6b6457e09190a35050565b600060208284031215610a1657600080fd5b5035919050565b600060208284031215610a2f57600080fd5b81356001600160a01b0381168114610a4657600080fd5b9392505050565b634e487b7160e01b600052601160045260246000fd5b80820180821115610a7657610a76610a4d565b92915050565b600082610a9957634e487b7160e01b600052601260045260246000fd5b500490565b60208082526015908201527441756374696f6e206973206e6f742061637469766560581b604082015260600190565b8082028115828204841417610a7657610a76610a4d565b81810381811115610a7657610a76610a4d56fea2646970667358221220283bb5aa083953eb4a82eb7d94486b256b886a156744f422f5e0d5f27aabdbd564736f6c63430008160033",
  "immutableReferences": {},
  "source": "// SPDX-License-Identifier: MIT\r\npragma solidity ^0.8.22;\r\n\r\nimport \"@openzeppelin/contracts/access/Ownable.sol\";\r\nimport \"./ChainvisionToken.sol\";\r\n\r\ncontract DutchAuction is Ownable {\r\n    ChainvisionToken public token;\r\n    uint public initialPrice;\r\n    uint public discountRate;\r\n    uint public startAt;\r\n    uint public endAt;\r\n    uint public totalSupply;\r\n    uint public remainingSupply;\r\n    uint public reservedTokens;\r\n    bool public auctionActive;\r\n\r\n    // Mapping to track how many tokens each bidder reserved\r\n    mapping(address => uint) public reservedTokensByBidder;\r\n\r\n    event AuctionStarted(uint startAt, uint endAt);\r\n    event TokensReserved(address indexed bidder, uint amount, uint totalPrice);\r\n    event AuctionEnded(uint endAt);\r\n    event TokensWithdrawn(address indexed bidder, uint amount);\r\n\r\n    // Constructor with require checks to avoid invalid input values\r\n    constructor(\r\n        uint _initialPrice,\r\n        uint _discountRate,\r\n        uint _totalSupply,\r\n        address _tokenAddress\r\n    ) Ownable(msg.sender) {\r\n        require(_initialPrice > 0, \"Starting price must be greater than zero\");\r\n        require(_discountRate > 0, \"Discount rate must be greater than zero\");\r\n        require(_totalSupply > 0, \"Total supply must be greater than zero\");\r\n\r\n        initialPrice = _initialPrice;\r\n        discountRate = _discountRate;\r\n        totalSupply = _totalSupply;\r\n        remainingSupply = _totalSupply;\r\n        auctionActive = false;\r\n        token = ChainvisionToken(_tokenAddress);\r\n    }\r\n\r\n    // Start the auction\r\n    function startAuction(uint duration) external onlyOwner {\r\n        require(!auctionActive, \"Auction is already active\");\r\n        startAt = block.timestamp;\r\n        endAt = block.timestamp + duration;\r\n        auctionActive = true;\r\n\r\n        emit AuctionStarted(startAt, endAt);\r\n    }\r\n\r\n    // Fetch the current price based on time elapsed\r\n    function getCurrentPrice() public view returns (uint) {\r\n        require(auctionActive, \"Auction is not active\");\r\n        uint timeElapsed = block.timestamp - startAt;\r\n        uint discount = timeElapsed * discountRate;\r\n        if (initialPrice > discount) {\r\n            return initialPrice - discount;\r\n        } else {\r\n            return 0;\r\n        }\r\n    }\r\n\r\n    // New function to fetch average price\r\n    function getAveragePrice() public view returns (uint) {\r\n        require(totalSupply > 0, \"No tokens available\");\r\n        return initialPrice / 2; // Example logic for calculating average price\r\n    }\r\n\r\n    // Reserve tokens and accept payment\r\n    function reserveTokens(uint amount) public payable {\r\n        require(auctionActive, \"Auction is not active\");\r\n        require(\r\n            amount > 0 && amount <= remainingSupply,\r\n            \"Invalid token amount\"\r\n        );\r\n        uint currentPrice = getCurrentPrice();\r\n        uint totalPrice = currentPrice * amount;\r\n        require(\r\n            msg.value >= totalPrice,\r\n            \"Insufficient ETH to cover token cost\"\r\n        );\r\n\r\n        reservedTokens += amount;\r\n        remainingSupply -= amount;\r\n        reservedTokensByBidder[msg.sender] += amount; // Track bidder's reserved tokens\r\n\r\n        // Refund excess ETH if the user overpaid\r\n        if (msg.value > totalPrice) {\r\n            payable(msg.sender).transfer(msg.value - totalPrice);\r\n        }\r\n\r\n        emit TokensReserved(msg.sender, amount, totalPrice);\r\n    }\r\n\r\n    // End the auction\r\n    function endAuction() public {\r\n        require(auctionActive, \"Auction is not active\");\r\n        require(\r\n            block.timestamp >= endAt || remainingSupply == 0,\r\n            \"Auction duration has not passed or tokens still remain\"\r\n        );\r\n\r\n        auctionActive = false;\r\n\r\n        // Emit the auction ended event\r\n        emit AuctionEnded(block.timestamp); // Emit current time, not endAt\r\n\r\n        // Reset all auction variables if needed\r\n        // Optional: Consider if the auction should reset certain values (remainingSupply, reservedTokens, etc.)\r\n    }\r\n\r\n    // Allow bidders to withdraw their reserved tokens after the auction ends\r\n    function withdrawTokens() public {\r\n        require(!auctionActive, \"Auction is still active\");\r\n        uint reservedAmount = reservedTokensByBidder[msg.sender];\r\n        require(reservedAmount > 0, \"No reserved tokens to withdraw\");\r\n\r\n        reservedTokensByBidder[msg.sender] = 0; // Reset the reserved tokens for the user\r\n        emit TokensWithdrawn(msg.sender, reservedAmount);\r\n\r\n        // Logic to transfer tokens would go here (if token management was implemented)\r\n    }\r\n\r\n    // Withdraw funds to the auction owner\r\n    function withdrawFunds() public onlyOwner {\r\n        payable(address(this)).transfer(address(this).balance);\r\n    }\r\n\r\n    // Fetch the auction end time\r\n    function getEndTime() public view returns (uint) {\r\n        return endAt;\r\n    }\r\n\r\n    // Check if the auction is active\r\n    function isAuctionActive() public view returns (bool) {\r\n        return auctionActive;\r\n    }\r\n\r\n    // Fetch the remaining token supply\r\n    function getRemainingSupply() public view returns (uint) {\r\n        return remainingSupply;\r\n    }\r\n\r\n    // Fetch the reserved tokens\r\n    function getReservedTokens() public view returns (uint) {\r\n        return reservedTokens;\r\n    }\r\n}\r\n",
  "sourcePath": "C:\\Users\\jin_c\\Desktop\\NTU\\Sem4.1\\SC4053-BLOCKCHAIN TECHNOLOGY\\Dev_Project\\Dutch_Auction_Dev\\dutch-auction-contracts\\contracts\\DutchAuction.sol",
  "compiler": {
    "name": "solc",
    "version": "0.8.22+commit.4fc1097e.Emscripten.clang"
  },
  "schemaVersion": "3.4.16",
  "updatedAt": "2024-09-28T11:13:20.929Z",
  "networkType": "ethereum",
  "devdoc": {
    "errors": {
      "OwnableInvalidOwner(address)": [
        {
          "details": "The owner is not a valid owner account. (eg. `address(0)`)"
        }
      ],
      "OwnableUnauthorizedAccount(address)": [
        {
          "details": "The caller account is not authorized to perform an operation."
        }
      ]
    },
    "kind": "dev",
    "methods": {
      "owner()": {
        "details": "Returns the address of the current owner."
      },
      "renounceOwnership()": {
        "details": "Leaves the contract without owner. It will not be possible to call `onlyOwner` functions. Can only be called by the current owner. NOTE: Renouncing ownership will leave the contract without an owner, thereby disabling any functionality that is only available to the owner."
      },
      "transferOwnership(address)": {
        "details": "Transfers ownership of the contract to a new account (`newOwner`). Can only be called by the current owner."
      }
    },
    "version": 1
  },
  "userdoc": {
    "kind": "user",
    "methods": {},
    "version": 1
  }
}