{
  "contractName": "DutchAuction",
  "abi": [
    {
      "inputs": [
        {
          "internalType": "uint256",
          "name": "_startingPrice",
          "type": "uint256"
        },
        {
          "internalType": "uint256",
          "name": "_discountRate",
          "type": "uint256"
        },
        {
          "internalType": "uint256",
          "name": "_totalSupply",
          "type": "uint256"
        }
      ],
      "stateMutability": "nonpayable",
      "type": "constructor"
    },
    {
      "anonymous": false,
      "inputs": [
        {
          "indexed": false,
          "internalType": "uint256",
          "name": "endAt",
          "type": "uint256"
        }
      ],
      "name": "AuctionEnded",
      "type": "event"
    },
    {
      "anonymous": false,
      "inputs": [
        {
          "indexed": false,
          "internalType": "uint256",
          "name": "startAt",
          "type": "uint256"
        },
        {
          "indexed": false,
          "internalType": "uint256",
          "name": "endAt",
          "type": "uint256"
        }
      ],
      "name": "AuctionStarted",
      "type": "event"
    },
    {
      "anonymous": false,
      "inputs": [
        {
          "indexed": true,
          "internalType": "address",
          "name": "bidder",
          "type": "address"
        },
        {
          "indexed": false,
          "internalType": "uint256",
          "name": "amount",
          "type": "uint256"
        },
        {
          "indexed": false,
          "internalType": "uint256",
          "name": "totalPrice",
          "type": "uint256"
        }
      ],
      "name": "TokensReserved",
      "type": "event"
    },
    {
      "anonymous": false,
      "inputs": [
        {
          "indexed": true,
          "internalType": "address",
          "name": "bidder",
          "type": "address"
        },
        {
          "indexed": false,
          "internalType": "uint256",
          "name": "amount",
          "type": "uint256"
        }
      ],
      "name": "TokensWithdrawn",
      "type": "event"
    },
    {
      "inputs": [],
      "name": "auctionActive",
      "outputs": [
        {
          "internalType": "bool",
          "name": "",
          "type": "bool"
        }
      ],
      "stateMutability": "view",
      "type": "function",
      "constant": true
    },
    {
      "inputs": [],
      "name": "auctionOwner",
      "outputs": [
        {
          "internalType": "address",
          "name": "",
          "type": "address"
        }
      ],
      "stateMutability": "view",
      "type": "function",
      "constant": true
    },
    {
      "inputs": [],
      "name": "discountRate",
      "outputs": [
        {
          "internalType": "uint256",
          "name": "",
          "type": "uint256"
        }
      ],
      "stateMutability": "view",
      "type": "function",
      "constant": true
    },
    {
      "inputs": [],
      "name": "endAt",
      "outputs": [
        {
          "internalType": "uint256",
          "name": "",
          "type": "uint256"
        }
      ],
      "stateMutability": "view",
      "type": "function",
      "constant": true
    },
    {
      "inputs": [],
      "name": "remainingSupply",
      "outputs": [
        {
          "internalType": "uint256",
          "name": "",
          "type": "uint256"
        }
      ],
      "stateMutability": "view",
      "type": "function",
      "constant": true
    },
    {
      "inputs": [],
      "name": "reservedTokens",
      "outputs": [
        {
          "internalType": "uint256",
          "name": "",
          "type": "uint256"
        }
      ],
      "stateMutability": "view",
      "type": "function",
      "constant": true
    },
    {
      "inputs": [
        {
          "internalType": "address",
          "name": "",
          "type": "address"
        }
      ],
      "name": "reservedTokensByBidder",
      "outputs": [
        {
          "internalType": "uint256",
          "name": "",
          "type": "uint256"
        }
      ],
      "stateMutability": "view",
      "type": "function",
      "constant": true
    },
    {
      "inputs": [],
      "name": "startAt",
      "outputs": [
        {
          "internalType": "uint256",
          "name": "",
          "type": "uint256"
        }
      ],
      "stateMutability": "view",
      "type": "function",
      "constant": true
    },
    {
      "inputs": [],
      "name": "startingPrice",
      "outputs": [
        {
          "internalType": "uint256",
          "name": "",
          "type": "uint256"
        }
      ],
      "stateMutability": "view",
      "type": "function",
      "constant": true
    },
    {
      "inputs": [],
      "name": "totalSupply",
      "outputs": [
        {
          "internalType": "uint256",
          "name": "",
          "type": "uint256"
        }
      ],
      "stateMutability": "view",
      "type": "function",
      "constant": true
    },
    {
      "inputs": [
        {
          "internalType": "uint256",
          "name": "duration",
          "type": "uint256"
        }
      ],
      "name": "startAuction",
      "outputs": [],
      "stateMutability": "nonpayable",
      "type": "function"
    },
    {
      "inputs": [],
      "name": "getCurrentPrice",
      "outputs": [
        {
          "internalType": "uint256",
          "name": "",
          "type": "uint256"
        }
      ],
      "stateMutability": "view",
      "type": "function",
      "constant": true
    },
    {
      "inputs": [],
      "name": "getAveragePrice",
      "outputs": [
        {
          "internalType": "uint256",
          "name": "",
          "type": "uint256"
        }
      ],
      "stateMutability": "view",
      "type": "function",
      "constant": true
    },
    {
      "inputs": [
        {
          "internalType": "uint256",
          "name": "amount",
          "type": "uint256"
        }
      ],
      "name": "reserveTokens",
      "outputs": [],
      "stateMutability": "payable",
      "type": "function",
      "payable": true
    },
    {
      "inputs": [],
      "name": "endAuction",
      "outputs": [],
      "stateMutability": "nonpayable",
      "type": "function"
    },
    {
      "inputs": [],
      "name": "withdrawTokens",
      "outputs": [],
      "stateMutability": "nonpayable",
      "type": "function"
    },
    {
      "inputs": [],
      "name": "withdrawFunds",
      "outputs": [],
      "stateMutability": "nonpayable",
      "type": "function"
    },
    {
      "inputs": [],
      "name": "getEndTime",
      "outputs": [
        {
          "internalType": "uint256",
          "name": "",
          "type": "uint256"
        }
      ],
      "stateMutability": "view",
      "type": "function",
      "constant": true
    },
    {
      "inputs": [],
      "name": "isAuctionActive",
      "outputs": [
        {
          "internalType": "bool",
          "name": "",
          "type": "bool"
        }
      ],
      "stateMutability": "view",
      "type": "function",
      "constant": true
    },
    {
      "inputs": [],
      "name": "getRemainingSupply",
      "outputs": [
        {
          "internalType": "uint256",
          "name": "",
          "type": "uint256"
        }
      ],
      "stateMutability": "view",
      "type": "function",
      "constant": true
    },
    {
      "inputs": [],
      "name": "getReservedTokens",
      "outputs": [
        {
          "internalType": "uint256",
          "name": "",
          "type": "uint256"
        }
      ],
      "stateMutability": "view",
      "type": "function",
      "constant": true
    }
  ],
  "bytecode": "0x608060405234801561001057600080fd5b50604051610c95380380610c9583398101604081905261002f91610180565b600083116100955760405162461bcd60e51b815260206004820152602860248201527f5374617274696e67207072696365206d7573742062652067726561746572207460448201526768616e207a65726f60c01b60648201526084015b60405180910390fd5b600082116100f55760405162461bcd60e51b815260206004820152602760248201527f446973636f756e742072617465206d7573742062652067726561746572207468604482015266616e207a65726f60c81b606482015260840161008c565b600081116101545760405162461bcd60e51b815260206004820152602660248201527f546f74616c20737570706c79206d7573742062652067726561746572207468616044820152656e207a65726f60d01b606482015260840161008c565b6000929092556001556004819055600555600780546001600160a81b03191661010033021790556101ae565b60008060006060848603121561019557600080fd5b8351925060208401519150604084015190509250925092565b610ad8806101bd6000396000f3fe60806040526004361061012a5760003560e01c8063c70fcf67116100ab578063d6fbf2021161006f578063d6fbf202146102e4578063da0239a6146102fa578063e4b7fb7314610310578063e6c0e6d514610325578063eb91d37e1461033b578063fe67a54b1461035057600080fd5b8063c70fcf6714610239578063c744656514610266578063d031370b1461027c578063d1b4b9a31461028f578063d3924aaf146102a757600080fd5b80637cc3ae8c116100f25780637cc3ae8c146101ba5780638d8f2adb146101d057806392228006146101e5578063a16f37741461020f578063a6be46aa1461022457600080fd5b8063065de74c1461012f57806315a553471461015157806318160ddd1461017a57806324600fc314610190578063439f5ac2146101a5575b600080fd5b34801561013b57600080fd5b5061014f61014a3660046109af565b610365565b005b34801561015d57600080fd5b5061016760065481565b6040519081526020015b60405180910390f35b34801561018657600080fd5b5061016760045481565b34801561019c57600080fd5b5061014f610494565b3480156101b157600080fd5b50600354610167565b3480156101c657600080fd5b5061016760035481565b3480156101dc57600080fd5b5061014f610544565b3480156101f157600080fd5b506007546101ff9060ff1681565b6040519015158152602001610171565b34801561021b57600080fd5b50600654610167565b34801561023057600080fd5b50610167610643565b34801561024557600080fd5b506101676102543660046109c8565b60086020526000908152604090205481565b34801561027257600080fd5b5061016760025481565b61014f61028a3660046109af565b6106a0565b34801561029b57600080fd5b5060075460ff166101ff565b3480156102b357600080fd5b506007546102cc9061010090046001600160a01b031681565b6040516001600160a01b039091168152602001610171565b3480156102f057600080fd5b5061016760005481565b34801561030657600080fd5b5061016760055481565b34801561031c57600080fd5b50600554610167565b34801561033157600080fd5b5061016760015481565b34801561034757600080fd5b50610167610861565b34801561035c57600080fd5b5061014f6108d2565b60075461010090046001600160a01b031633146103da5760405162461bcd60e51b815260206004820152602860248201527f4f6e6c792061756374696f6e206f776e65722063616e207374617274207468656044820152671030bab1ba34b7b760c11b60648201526084015b60405180910390fd5b60075460ff161561042d5760405162461bcd60e51b815260206004820152601960248201527f41756374696f6e20697320616c7265616479206163746976650000000000000060448201526064016103d1565b42600281905561043e908290610a0e565b60038190556007805460ff191660011790556002546040517ff8910119ddbef5440c54532457dfe8250a10ed39e583292818f44724b9e1344c92610489928252602082015260400190565b60405180910390a150565b60075461010090046001600160a01b031633146105015760405162461bcd60e51b815260206004820152602560248201527f4f6e6c792061756374696f6e206f776e65722063616e2077697468647261772060448201526466756e647360d81b60648201526084016103d1565b6007546040516001600160a01b0361010090920491909116904780156108fc02916000818181858888f19350505050158015610541573d6000803e3d6000fd5b50565b60075460ff16156105975760405162461bcd60e51b815260206004820152601760248201527f41756374696f6e206973207374696c6c2061637469766500000000000000000060448201526064016103d1565b33600090815260086020526040902054806105f45760405162461bcd60e51b815260206004820152601e60248201527f4e6f20726573657276656420746f6b656e7320746f207769746864726177000060448201526064016103d1565b3360008181526008602052604080822091909155517f6352c5382c4a4578e712449ca65e83cdb392d045dfcf1cad9615189db2da244b906106389084815260200190565b60405180910390a250565b6000806004541161068c5760405162461bcd60e51b81526020600482015260136024820152724e6f20746f6b656e7320617661696c61626c6560681b60448201526064016103d1565b600260005461069b9190610a27565b905090565b60075460ff166106c25760405162461bcd60e51b81526004016103d190610a49565b6000811180156106d457506005548111155b6107175760405162461bcd60e51b8152602060048201526014602482015273125b9d985b1a59081d1bdad95b88185b5bdd5b9d60621b60448201526064016103d1565b6000610721610861565b9050600061072f8383610a78565b90508034101561078d5760405162461bcd60e51b8152602060048201526024808201527f496e73756666696369656e742045544820746f20636f76657220746f6b656e2060448201526318dbdcdd60e21b60648201526084016103d1565b826006600082825461079f9190610a0e565b9250508190555082600560008282546107b89190610a8f565b909155505033600090815260086020526040812080548592906107dc908490610a0e565b90915550503481101561082157336108fc6107f78334610a8f565b6040518115909202916000818181858888f1935050505015801561081f573d6000803e3d6000fd5b505b604080518481526020810183905233917fea2d30edb838f5a3221f85861ab9727d5449c474cc03ffa6a78a0a9e7f084f65910160405180910390a2505050565b60075460009060ff166108865760405162461bcd60e51b81526004016103d190610a49565b6000600254426108969190610a8f565b90506000600154826108a89190610a78565b90508060005411156108c957806000546108c29190610a8f565b9250505090565b60009250505090565b60075460ff166108f45760405162461bcd60e51b81526004016103d190610a49565b600354421015806109055750600554155b6109705760405162461bcd60e51b815260206004820152603660248201527f41756374696f6e206475726174696f6e20686173206e6f74207061737365642060448201527537b9103a37b5b2b7399039ba34b636103932b6b0b4b760511b60648201526084016103d1565b6007805460ff191690556040514281527f45806e512b1f4f10e33e8b3cb64d1d11d998d8c554a95e0841fc1c701278bd5d9060200160405180910390a1565b6000602082840312156109c157600080fd5b5035919050565b6000602082840312156109da57600080fd5b81356001600160a01b03811681146109f157600080fd5b9392505050565b634e487b7160e01b600052601160045260246000fd5b80820180821115610a2157610a216109f8565b92915050565b600082610a4457634e487b7160e01b600052601260045260246000fd5b500490565b60208082526015908201527441756374696f6e206973206e6f742061637469766560581b604082015260600190565b8082028115828204841417610a2157610a216109f8565b81810381811115610a2157610a216109f856fea2646970667358221220c53325f3b1f1dd20ffbdfbd502791f68a1da948ffcdb5f1128b64f731f0714a664736f6c63430008160033",
  "immutableReferences": {},
  "source": "// SPDX-License-Identifier: MIT\r\npragma solidity ^0.8.22;\r\n\r\ncontract DutchAuction {\r\n    uint public startingPrice;\r\n    uint public discountRate;\r\n    uint public startAt;\r\n    uint public endAt;\r\n    uint public totalSupply;\r\n    uint public remainingSupply;\r\n    uint public reservedTokens;\r\n    bool public auctionActive;\r\n    address public auctionOwner;\r\n\r\n    // Mapping to track how many tokens each bidder reserved\r\n    mapping(address => uint) public reservedTokensByBidder;\r\n\r\n    event AuctionStarted(uint startAt, uint endAt);\r\n    event TokensReserved(address indexed bidder, uint amount, uint totalPrice);\r\n    event AuctionEnded(uint endAt);\r\n    event TokensWithdrawn(address indexed bidder, uint amount);\r\n\r\n    // Constructor with require checks to avoid invalid input values\r\n    constructor(uint _startingPrice, uint _discountRate, uint _totalSupply) {\r\n        require(_startingPrice > 0, \"Starting price must be greater than zero\");\r\n        require(_discountRate > 0, \"Discount rate must be greater than zero\");\r\n        require(_totalSupply > 0, \"Total supply must be greater than zero\");\r\n\r\n        startingPrice = _startingPrice;\r\n        discountRate = _discountRate;\r\n        totalSupply = _totalSupply;\r\n        remainingSupply = _totalSupply;\r\n        auctionActive = false;\r\n        auctionOwner = msg.sender; // Set the owner\r\n    }\r\n\r\n    // Start the auction\r\n    function startAuction(uint duration) external {\r\n        require(\r\n            msg.sender == auctionOwner,\r\n            \"Only auction owner can start the auction\"\r\n        );\r\n        require(!auctionActive, \"Auction is already active\");\r\n        startAt = block.timestamp;\r\n        endAt = block.timestamp + duration;\r\n        auctionActive = true;\r\n\r\n        emit AuctionStarted(startAt, endAt);\r\n    }\r\n\r\n    // Fetch the current price based on time elapsed\r\n    function getCurrentPrice() public view returns (uint) {\r\n        require(auctionActive, \"Auction is not active\");\r\n        uint timeElapsed = block.timestamp - startAt;\r\n        uint discount = timeElapsed * discountRate;\r\n        if (startingPrice > discount) {\r\n            return startingPrice - discount;\r\n        } else {\r\n            return 0;\r\n        }\r\n    }\r\n\r\n    // New function to fetch average price\r\n    function getAveragePrice() public view returns (uint) {\r\n        require(totalSupply > 0, \"No tokens available\");\r\n        return startingPrice / 2; // Example logic for calculating average price\r\n    }\r\n\r\n    // Reserve tokens and accept payment\r\n    function reserveTokens(uint amount) public payable {\r\n        require(auctionActive, \"Auction is not active\");\r\n        require(\r\n            amount > 0 && amount <= remainingSupply,\r\n            \"Invalid token amount\"\r\n        );\r\n        uint currentPrice = getCurrentPrice();\r\n        uint totalPrice = currentPrice * amount;\r\n        require(\r\n            msg.value >= totalPrice,\r\n            \"Insufficient ETH to cover token cost\"\r\n        );\r\n\r\n        reservedTokens += amount;\r\n        remainingSupply -= amount;\r\n        reservedTokensByBidder[msg.sender] += amount; // Track bidder's reserved tokens\r\n\r\n        // Refund excess ETH if the user overpaid\r\n        if (msg.value > totalPrice) {\r\n            payable(msg.sender).transfer(msg.value - totalPrice);\r\n        }\r\n\r\n        emit TokensReserved(msg.sender, amount, totalPrice);\r\n    }\r\n\r\n    // End the auction\r\n    function endAuction() public {\r\n        require(auctionActive, \"Auction is not active\");\r\n        require(\r\n            block.timestamp >= endAt || remainingSupply == 0,\r\n            \"Auction duration has not passed or tokens still remain\"\r\n        );\r\n\r\n        auctionActive = false;\r\n\r\n        // Emit the auction ended event\r\n        emit AuctionEnded(block.timestamp); // Emit current time, not endAt\r\n\r\n        // Reset all auction variables if needed\r\n        // Optional: Consider if the auction should reset certain values (remainingSupply, reservedTokens, etc.)\r\n    }\r\n\r\n    // Allow bidders to withdraw their reserved tokens after the auction ends\r\n    function withdrawTokens() public {\r\n        require(!auctionActive, \"Auction is still active\");\r\n        uint reservedAmount = reservedTokensByBidder[msg.sender];\r\n        require(reservedAmount > 0, \"No reserved tokens to withdraw\");\r\n\r\n        reservedTokensByBidder[msg.sender] = 0; // Reset the reserved tokens for the user\r\n        emit TokensWithdrawn(msg.sender, reservedAmount);\r\n\r\n        // Logic to transfer tokens would go here (if token management was implemented)\r\n    }\r\n\r\n    // Withdraw funds to the auction owner\r\n    function withdrawFunds() public {\r\n        require(\r\n            msg.sender == auctionOwner,\r\n            \"Only auction owner can withdraw funds\"\r\n        );\r\n        payable(auctionOwner).transfer(address(this).balance);\r\n    }\r\n\r\n    // Fetch the auction end time\r\n    function getEndTime() public view returns (uint) {\r\n        return endAt;\r\n    }\r\n\r\n    // Check if the auction is active\r\n    function isAuctionActive() public view returns (bool) {\r\n        return auctionActive;\r\n    }\r\n\r\n    // Fetch the remaining token supply\r\n    function getRemainingSupply() public view returns (uint) {\r\n        return remainingSupply;\r\n    }\r\n\r\n    // Fetch the reserved tokens\r\n    function getReservedTokens() public view returns (uint) {\r\n        return reservedTokens;\r\n    }\r\n}\r\n",
  "sourcePath": "C:\\Users\\jin_c\\Desktop\\NTU\\Sem4.1\\SC4053-BLOCKCHAIN TECHNOLOGY\\Dev_Project\\Dutch_Auction_Dev\\dutch-auction-contracts\\contracts\\DutchAuction.sol",
  "compiler": {
    "name": "solc",
    "version": "0.8.22+commit.4fc1097e.Emscripten.clang"
  },
  "schemaVersion": "3.4.16",
  "updatedAt": "2024-09-28T08:53:27.880Z",
  "networkType": "ethereum",
  "devdoc": {
    "kind": "dev",
    "methods": {},
    "version": 1
  },
  "userdoc": {
    "kind": "user",
    "methods": {},
    "version": 1
  }
}